{
  "contractName": "Exchange",
  "abi": [
    {
      "inputs": [
        {
          "internalType": "address",
          "name": "_feeAccount",
          "type": "address"
        },
        {
          "internalType": "uint256",
          "name": "_feePct",
          "type": "uint256"
        }
      ],
      "stateMutability": "nonpayable",
      "type": "constructor"
    },
    {
      "anonymous": false,
      "inputs": [
        {
          "indexed": true,
          "internalType": "address",
          "name": "owner",
          "type": "address"
        },
        {
          "indexed": true,
          "internalType": "address",
          "name": "spender",
          "type": "address"
        },
        {
          "indexed": false,
          "internalType": "uint256",
          "name": "value",
          "type": "uint256"
        }
      ],
      "name": "Approval",
      "type": "event"
    },
    {
      "anonymous": false,
      "inputs": [
        {
          "indexed": true,
          "internalType": "address",
          "name": "previousOwner",
          "type": "address"
        },
        {
          "indexed": true,
          "internalType": "address",
          "name": "newOwner",
          "type": "address"
        }
      ],
      "name": "OwnershipTransferred",
      "type": "event"
    },
    {
      "anonymous": false,
      "inputs": [
        {
          "indexed": false,
          "internalType": "uint256",
          "name": "id",
          "type": "uint256"
        }
      ],
      "name": "Snapshot",
      "type": "event"
    },
    {
      "anonymous": false,
      "inputs": [
        {
          "indexed": true,
          "internalType": "address",
          "name": "from",
          "type": "address"
        },
        {
          "indexed": true,
          "internalType": "address",
          "name": "to",
          "type": "address"
        },
        {
          "indexed": false,
          "internalType": "uint256",
          "name": "value",
          "type": "uint256"
        }
      ],
      "name": "Transfer",
      "type": "event"
    },
    {
      "inputs": [
        {
          "internalType": "address",
          "name": "owner",
          "type": "address"
        },
        {
          "internalType": "address",
          "name": "spender",
          "type": "address"
        }
      ],
      "name": "allowance",
      "outputs": [
        {
          "internalType": "uint256",
          "name": "",
          "type": "uint256"
        }
      ],
      "stateMutability": "view",
      "type": "function"
    },
    {
      "inputs": [
        {
          "internalType": "address",
          "name": "spender",
          "type": "address"
        },
        {
          "internalType": "uint256",
          "name": "amount",
          "type": "uint256"
        }
      ],
      "name": "approve",
      "outputs": [
        {
          "internalType": "bool",
          "name": "",
          "type": "bool"
        }
      ],
      "stateMutability": "nonpayable",
      "type": "function"
    },
    {
      "inputs": [
        {
          "internalType": "address",
          "name": "account",
          "type": "address"
        }
      ],
      "name": "balanceOf",
      "outputs": [
        {
          "internalType": "uint256",
          "name": "",
          "type": "uint256"
        }
      ],
      "stateMutability": "view",
      "type": "function"
    },
    {
      "inputs": [
        {
          "internalType": "address",
          "name": "account",
          "type": "address"
        },
        {
          "internalType": "uint256",
          "name": "snapshotId",
          "type": "uint256"
        }
      ],
      "name": "balanceOfAt",
      "outputs": [
        {
          "internalType": "uint256",
          "name": "",
          "type": "uint256"
        }
      ],
      "stateMutability": "view",
      "type": "function"
    },
    {
      "inputs": [
        {
          "internalType": "uint256",
          "name": "_burnAmount",
          "type": "uint256"
        }
      ],
      "name": "burn",
      "outputs": [],
      "stateMutability": "nonpayable",
      "type": "function"
    },
    {
      "inputs": [],
      "name": "decimals",
      "outputs": [
        {
          "internalType": "uint8",
          "name": "",
          "type": "uint8"
        }
      ],
      "stateMutability": "view",
      "type": "function"
    },
    {
      "inputs": [
        {
          "internalType": "address",
          "name": "spender",
          "type": "address"
        },
        {
          "internalType": "uint256",
          "name": "subtractedValue",
          "type": "uint256"
        }
      ],
      "name": "decreaseAllowance",
      "outputs": [
        {
          "internalType": "bool",
          "name": "",
          "type": "bool"
        }
      ],
      "stateMutability": "nonpayable",
      "type": "function"
    },
    {
      "inputs": [],
      "name": "feeAccount",
      "outputs": [
        {
          "internalType": "address",
          "name": "",
          "type": "address"
        }
      ],
      "stateMutability": "view",
      "type": "function"
    },
    {
      "inputs": [],
      "name": "feePct",
      "outputs": [
        {
          "internalType": "uint256",
          "name": "",
          "type": "uint256"
        }
      ],
      "stateMutability": "view",
      "type": "function"
    },
    {
      "inputs": [],
      "name": "getSnapshotId",
      "outputs": [],
      "stateMutability": "view",
      "type": "function"
    },
    {
      "inputs": [
        {
          "internalType": "address",
          "name": "spender",
          "type": "address"
        },
        {
          "internalType": "uint256",
          "name": "addedValue",
          "type": "uint256"
        }
      ],
      "name": "increaseAllowance",
      "outputs": [
        {
          "internalType": "bool",
          "name": "",
          "type": "bool"
        }
      ],
      "stateMutability": "nonpayable",
      "type": "function"
    },
    {
      "inputs": [],
      "name": "name",
      "outputs": [
        {
          "internalType": "string",
          "name": "",
          "type": "string"
        }
      ],
      "stateMutability": "view",
      "type": "function"
    },
    {
      "inputs": [],
      "name": "owner",
      "outputs": [
        {
          "internalType": "address",
          "name": "",
          "type": "address"
        }
      ],
      "stateMutability": "view",
      "type": "function"
    },
    {
      "inputs": [],
      "name": "renounceOwnership",
      "outputs": [],
      "stateMutability": "nonpayable",
      "type": "function"
    },
    {
      "inputs": [],
      "name": "snapshot",
      "outputs": [],
      "stateMutability": "nonpayable",
      "type": "function"
    },
    {
      "inputs": [],
      "name": "symbol",
      "outputs": [
        {
          "internalType": "string",
          "name": "",
          "type": "string"
        }
      ],
      "stateMutability": "view",
      "type": "function"
    },
    {
      "inputs": [
        {
          "internalType": "address",
          "name": "",
          "type": "address"
        },
        {
          "internalType": "address",
          "name": "",
          "type": "address"
        }
      ],
      "name": "tokens",
      "outputs": [
        {
          "internalType": "uint256",
          "name": "",
          "type": "uint256"
        }
      ],
      "stateMutability": "view",
      "type": "function"
    },
    {
      "inputs": [],
      "name": "totalSupply",
      "outputs": [
        {
          "internalType": "uint256",
          "name": "",
          "type": "uint256"
        }
      ],
      "stateMutability": "view",
      "type": "function"
    },
    {
      "inputs": [
        {
          "internalType": "uint256",
          "name": "snapshotId",
          "type": "uint256"
        }
      ],
      "name": "totalSupplyAt",
      "outputs": [
        {
          "internalType": "uint256",
          "name": "",
          "type": "uint256"
        }
      ],
      "stateMutability": "view",
      "type": "function"
    },
    {
      "inputs": [
        {
          "internalType": "address",
          "name": "recipient",
          "type": "address"
        },
        {
          "internalType": "uint256",
          "name": "amount",
          "type": "uint256"
        }
      ],
      "name": "transfer",
      "outputs": [
        {
          "internalType": "bool",
          "name": "",
          "type": "bool"
        }
      ],
      "stateMutability": "nonpayable",
      "type": "function"
    },
    {
      "inputs": [
        {
          "internalType": "address",
          "name": "sender",
          "type": "address"
        },
        {
          "internalType": "address",
          "name": "recipient",
          "type": "address"
        },
        {
          "internalType": "uint256",
          "name": "amount",
          "type": "uint256"
        }
      ],
      "name": "transferFrom",
      "outputs": [
        {
          "internalType": "bool",
          "name": "",
          "type": "bool"
        }
      ],
      "stateMutability": "nonpayable",
      "type": "function"
    },
    {
      "inputs": [
        {
          "internalType": "address",
          "name": "newOwner",
          "type": "address"
        }
      ],
      "name": "transferOwnership",
      "outputs": [],
      "stateMutability": "nonpayable",
      "type": "function"
    },
    {
      "inputs": [
        {
          "internalType": "address",
          "name": "_token",
          "type": "address"
        },
        {
          "internalType": "uint256",
          "name": "_amount",
          "type": "uint256"
        }
      ],
      "name": "depositToken",
      "outputs": [],
      "stateMutability": "nonpayable",
      "type": "function"
    }
  ],
  "bytecode": "0x60806040523480156200001157600080fd5b50604051620018163803806200181683398101604081905262000034916200045c565b6040518060400160405280600481526020016320b737b760e11b8152506040518060400160405280600281526020016120a760f11b8152506200008662000080620000f960201b60201c565b620000fd565b81516200009b906005906020850190620003b6565b508051620000b1906006906020840190620003b6565b505050620000d03369152d02c7e14af68000006200014d60201b60201c565b600c55600b80546001600160a01b0319166001600160a01b039290921691909117905562000535565b3390565b600080546001600160a01b038381166001600160a01b0319831681178455604051919092169283917f8be0079c531659141344cd1fd0a4f28419497f9722a3daafe3b4186f6b6457e09190a35050565b6001600160a01b038216620001a85760405162461bcd60e51b815260206004820152601f60248201527f45524332303a206d696e7420746f20746865207a65726f206164647265737300604482015260640160405180910390fd5b620001b66000838362000243565b8060046000828254620001ca9190620004ae565b90915550506001600160a01b03821660009081526001602052604081208054839290620001f9908490620004ae565b90915550506040518181526001600160a01b038316906000907fddf252ad1be2c89b69c2b068fc378daa952ba7f163c4a11628f55a4df523b3ef9060200160405180910390a35050565b6200025b8383836200027f60201b620007a81760201c565b6001600160a01b03831662000284576200027582620002af565b6200027f620002e8565b505050565b6001600160a01b0382166200029e576200027583620002af565b620002a983620002af565b6200027f825b6001600160a01b0381166000908152600760209081526040808320600190925290912054620002e59190620002fa565b620002fa565b50565b620002f86008620002df60045490565b565b60006200030662000349565b905080620003148462000367565b10156200027f578254600180820185556000858152602080822090930193909355938401805494850181558252902090910155565b600062000362600a620003b260201b620007ad1760201c565b905090565b805460009081036200037b57506000919050565b815482906200038d90600190620004c9565b81548110620003a057620003a0620004e3565b90600052602060002001549050919050565b5490565b828054620003c490620004f9565b90600052602060002090601f016020900481019282620003e8576000855562000433565b82601f106200040357805160ff191683800117855562000433565b8280016001018555821562000433579182015b828111156200043357825182559160200191906001019062000416565b506200044192915062000445565b5090565b5b8082111562000441576000815560010162000446565b600080604083850312156200047057600080fd5b82516001600160a01b03811681146200048857600080fd5b6020939093015192949293505050565b634e487b7160e01b600052601160045260246000fd5b60008219821115620004c457620004c462000498565b500190565b600082821015620004de57620004de62000498565b500390565b634e487b7160e01b600052603260045260246000fd5b600181811c908216806200050e57607f821691505b6020821081036200052f57634e487b7160e01b600052602260045260246000fd5b50919050565b6112d180620005456000396000f3fe608060405234801561001057600080fd5b506004361061014d5760003560e01c806368b2c387116100c3578063981b24d01161007c578063981b24d0146102c5578063a02cf937146102d8578063a457c2d7146102e1578063a9059cbb146102f4578063dd62ed3e14610307578063f2fde38b1461034057600080fd5b806368b2c3871461026b57806370a0823114610273578063715018a61461029c5780638da5cb5b146102a457806395d89b41146102b55780639711715a146102bd57600080fd5b8063338b5dea11610115578063338b5dea146101c757806339509351146101dc57806342966c68146101ef5780634ee2cd7e14610202578063508493bc1461021557806365e17c9d1461024057600080fd5b806306fdde0314610152578063095ea7b31461017057806318160ddd1461019357806323b872dd146101a5578063313ce567146101b8575b600080fd5b61015a610353565b6040516101679190611089565b60405180910390f35b61018361017e3660046110f5565b6103e5565b6040519015158152602001610167565b6004545b604051908152602001610167565b6101836101b336600461111f565b6103fc565b60405160128152602001610167565b6101da6101d53660046110f5565b6104ab565b005b6101836101ea3660046110f5565b610584565b6101da6101fd36600461115b565b6105c0565b6101976102103660046110f5565b6105cd565b610197610223366004611174565b600d60209081526000928352604080842090915290825290205481565b600b54610253906001600160a01b031681565b6040516001600160a01b039091168152602001610167565b6101da610626565b6101976102813660046111a7565b6001600160a01b031660009081526001602052604090205490565b6101da61062e565b6000546001600160a01b0316610253565b61015a610642565b6101da610651565b6101976102d336600461115b565b610661565b610197600c5481565b6101836102ef3660046110f5565b61068c565b6101836103023660046110f5565b610725565b610197610315366004611174565b6001600160a01b03918216600090815260026020908152604080832093909416825291909152205490565b6101da61034e3660046111a7565b610732565b606060058054610362906111c2565b80601f016020809104026020016040519081016040528092919081815260200182805461038e906111c2565b80156103db5780601f106103b0576101008083540402835291602001916103db565b820191906000526020600020905b8154815290600101906020018083116103be57829003601f168201915b5050505050905090565b60006103f23384846107b1565b5060015b92915050565b60006104098484846108d5565b6001600160a01b0384166000908152600260209081526040808320338452909152902054828110156104935760405162461bcd60e51b815260206004820152602860248201527f45524332303a207472616e7366657220616d6f756e74206578636565647320616044820152676c6c6f77616e636560c01b60648201526084015b60405180910390fd5b6104a085338584036107b1565b506001949350505050565b6040516323b872dd60e01b8152336004820152306024820152604481018290526001600160a01b038316906323b872dd906064016020604051808303816000875af11580156104fe573d6000803e3d6000fd5b505050506040513d601f19601f8201168201806040525081019061052291906111fc565b61052b57600080fd5b6001600160a01b0382166000908152600d602090815260408083203384529091529020546105599082610b15565b6001600160a01b039092166000908152600d6020908152604080832033845290915290209190915550565b3360008181526002602090815260408083206001600160a01b038716845290915281205490916103f29185906105bb908690611234565b6107b1565b6105ca3382610b28565b50565b6001600160a01b0382166000908152600760205260408120819081906105f4908590610c82565b915091508161061b576001600160a01b03851660009081526001602052604090205461061d565b805b95945050505050565b6105ca610d78565b610636610d88565b6106406000610de2565b565b606060068054610362906111c2565b610659610d88565b6105ca610e32565b6000806000610671846008610c82565b915091508161068257600454610684565b805b949350505050565b3360009081526002602090815260408083206001600160a01b03861684529091528120548281101561070e5760405162461bcd60e51b815260206004820152602560248201527f45524332303a2064656372656173656420616c6c6f77616e63652062656c6f77604482015264207a65726f60d81b606482015260840161048a565b61071b33858584036107b1565b5060019392505050565b60006103f23384846108d5565b61073a610d88565b6001600160a01b03811661079f5760405162461bcd60e51b815260206004820152602660248201527f4f776e61626c653a206e6577206f776e657220697320746865207a65726f206160448201526564647265737360d01b606482015260840161048a565b6105ca81610de2565b505050565b5490565b6001600160a01b0383166108135760405162461bcd60e51b8152602060048201526024808201527f45524332303a20617070726f76652066726f6d20746865207a65726f206164646044820152637265737360e01b606482015260840161048a565b6001600160a01b0382166108745760405162461bcd60e51b815260206004820152602260248201527f45524332303a20617070726f766520746f20746865207a65726f206164647265604482015261737360f01b606482015260840161048a565b6001600160a01b0383811660008181526002602090815260408083209487168084529482529182902085905590518481527f8c5be1e5ebec7d5bd14f71427d1e84f3dd0314c0f7b2291e5b200ac8c7c3b925910160405180910390a3505050565b6001600160a01b0383166109395760405162461bcd60e51b815260206004820152602560248201527f45524332303a207472616e736665722066726f6d20746865207a65726f206164604482015264647265737360d81b606482015260840161048a565b6001600160a01b03821661099b5760405162461bcd60e51b815260206004820152602360248201527f45524332303a207472616e7366657220746f20746865207a65726f206164647260448201526265737360e81b606482015260840161048a565b6109a6838383610e8c565b6001600160a01b03831660009081526001602052604090205481811015610a1e5760405162461bcd60e51b815260206004820152602660248201527f45524332303a207472616e7366657220616d6f756e7420657863656564732062604482015265616c616e636560d01b606482015260840161048a565b6001600160a01b03808516600090815260016020526040808220858503905591851681529081208054849290610a55908490611234565b92505081905550826001600160a01b0316846001600160a01b03167fddf252ad1be2c89b69c2b068fc378daa952ba7f163c4a11628f55a4df523b3ef84604051610aa191815260200190565b60405180910390a35050600360205250507fa15bc60c955c405d20d9149c709e2460f1c2d9a497496a7f46004d1772c3054c80546001810182556000919091527f2c644dcf44e265ba93879b2da89e1b16ab48fc5eb8e31bc16b0612d6da8463f10180546001600160a01b03191633179055565b6000610b218284611234565b9392505050565b6001600160a01b038216610b885760405162461bcd60e51b815260206004820152602160248201527f45524332303a206275726e2066726f6d20746865207a65726f206164647265736044820152607360f81b606482015260840161048a565b610b9482600083610e8c565b6001600160a01b03821660009081526001602052604090205481811015610c085760405162461bcd60e51b815260206004820152602260248201527f45524332303a206275726e20616d6f756e7420657863656564732062616c616e604482015261636560f01b606482015260840161048a565b6001600160a01b0383166000908152600160205260408120838303905560048054849290610c3790849061124c565b90915550506040518281526000906001600160a01b038516907fddf252ad1be2c89b69c2b068fc378daa952ba7f163c4a11628f55a4df523b3ef9060200160405180910390a3505050565b60008060008411610cce5760405162461bcd60e51b815260206004820152601660248201527504552433230536e617073686f743a20696420697320360541b604482015260640161048a565b610cd6610d78565b841115610d255760405162461bcd60e51b815260206004820152601d60248201527f4552433230536e617073686f743a206e6f6e6578697374656e74206964000000604482015260640161048a565b6000610d318486610ed4565b84549091508103610d49576000809250925050610d71565b6001846001018281548110610d6057610d60611263565b906000526020600020015492509250505b9250929050565b6000610d83600a5490565b905090565b6000546001600160a01b031633146106405760405162461bcd60e51b815260206004820181905260248201527f4f776e61626c653a2063616c6c6572206973206e6f7420746865206f776e6572604482015260640161048a565b600080546001600160a01b038381166001600160a01b0319831681178455604051919092169283917f8be0079c531659141344cd1fd0a4f28419497f9722a3daafe3b4186f6b6457e09190a35050565b6000610e42600a80546001019055565b6000610e4c610d78565b90507f8030e83b04d87bef53480e26263266d6ca66863aa8506aca6f2559d18aa1cb6781604051610e7f91815260200190565b60405180910390a1919050565b6001600160a01b038316610eab57610ea382610f99565b6107a8610fcc565b6001600160a01b038216610ec257610ea383610f99565b610ecb83610f99565b6107a882610f99565b81546000908103610ee7575060006103f6565b82546000905b80821015610f43576000610f018383610fda565b905084868281548110610f1657610f16611263565b90600052602060002001541115610f2f57809150610f3d565b610f3a816001611234565b92505b50610eed565b600082118015610f7857508385610f5b60018561124c565b81548110610f6b57610f6b611263565b9060005260206000200154145b15610f9157610f8860018361124c565b925050506103f6565b5090506103f6565b6001600160a01b03811660009081526007602090815260408083206001909252909120546105ca9190610ff5565b610ff5565b6106406008610fc760045490565b6000610fe96002848418611279565b610b2190848416611234565b6000610fff610d78565b90508061100b8461103f565b10156107a8578254600180820185556000858152602080822090930193909355938401805494850181558252902090910155565b8054600090810361105257506000919050565b815482906110629060019061124c565b8154811061107257611072611263565b90600052602060002001549050919050565b919050565b600060208083528351808285015260005b818110156110b65785810183015185820160400152820161109a565b818111156110c8576000604083870101525b50601f01601f1916929092016040019392505050565b80356001600160a01b038116811461108457600080fd5b6000806040838503121561110857600080fd5b611111836110de565b946020939093013593505050565b60008060006060848603121561113457600080fd5b61113d846110de565b925061114b602085016110de565b9150604084013590509250925092565b60006020828403121561116d57600080fd5b5035919050565b6000806040838503121561118757600080fd5b611190836110de565b915061119e602084016110de565b90509250929050565b6000602082840312156111b957600080fd5b610b21826110de565b600181811c908216806111d657607f821691505b6020821081036111f657634e487b7160e01b600052602260045260246000fd5b50919050565b60006020828403121561120e57600080fd5b81518015158114610b2157600080fd5b634e487b7160e01b600052601160045260246000fd5b600082198211156112475761124761121e565b500190565b60008282101561125e5761125e61121e565b500390565b634e487b7160e01b600052603260045260246000fd5b60008261129657634e487b7160e01b600052601260045260246000fd5b50049056fea2646970667358221220c01ae500869aed696b6b6d4d02d77b321ec30b9de93b8f443411bcf547d01a6a64736f6c634300080e0033",
  "immutableReferences": {},
  "source": "// SPDX-License-Identifier: MIT\r\n\r\n\r\npragma solidity ^0.8.0;\r\n\r\nimport \"./Token.sol\";\r\nimport \"./SafeMath.sol\";\r\n\r\ncontract Exchange is upOnly_v2 {\r\n    using SafeMath for uint;\r\n\r\n    address public feeAccount; //account that receives exchange fees\r\n    uint256 public feePct;\r\n    mapping(address => mapping(address => uint256)) public tokens;\r\n\r\n\r\n    constructor(address _feeAccount, uint256 _feePct) {\r\n        feePct = _feePct;\r\n        feeAccount = _feeAccount;\r\n    }\r\n\r\n    function depositToken(address _token, uint256 _amount) public {\r\n        require(upOnly_v2(_token).transferFrom(msg.sender, address(this), _amount));\r\n        // token.approve(address(this), _amount);\r\n        tokens[_token][msg.sender] = tokens[_token][msg.sender].add(_amount);\r\n        \r\n\r\n    }\r\n}\r\n\r\n\r\n\r\n\r\n\r\n\r\n\r\n\r\n\r\n\r\n\r\n/*\r\nDeposit and withdraw funds\r\nmanage orders - make and cancel\r\nhandle trades - charge fees\r\n\r\nto do:\r\n[] deposit ether\r\n[] withdraw ether\r\n[] deposit tokens\r\n[] withdraw tokens\r\n[] check balance\r\n[] make order\r\n[] cancel order \r\n[] fill order\r\n[] charge fees\r\n*/",
  "sourcePath": "/mnt/c/Users/canma/Desktop/Code/DappU DEX/dex/src/contracts/Exchange.sol",
  "compiler": {
    "name": "solc",
    "version": "0.8.14+commit.80d49f37.Emscripten.clang"
  },
  "schemaVersion": "3.4.7",
  "updatedAt": "2022-12-09T20:57:34.740Z",
  "devdoc": {
    "kind": "dev",
    "methods": {
      "allowance(address,address)": {
        "details": "See {IERC20-allowance}."
      },
      "approve(address,uint256)": {
        "details": "See {IERC20-approve}. Requirements: - `spender` cannot be the zero address."
      },
      "balanceOf(address)": {
        "details": "See {IERC20-balanceOf}."
      },
      "balanceOfAt(address,uint256)": {
        "details": "Retrieves the balance of `account` at the time `snapshotId` was created."
      },
      "decimals()": {
        "details": "Returns the number of decimals used to get its user representation. For example, if `decimals` equals `2`, a balance of `505` tokens should be displayed to a user as `5.05` (`505 / 10 ** 2`). Tokens usually opt for a value of 18, imitating the relationship between Ether and Wei. This is the value {ERC20} uses, unless this function is overridden; NOTE: This information is only used for _display_ purposes: it in no way affects any of the arithmetic of the contract, including {IERC20-balanceOf} and {IERC20-transfer}."
      },
      "decreaseAllowance(address,uint256)": {
        "details": "Atomically decreases the allowance granted to `spender` by the caller. This is an alternative to {approve} that can be used as a mitigation for problems described in {IERC20-approve}. Emits an {Approval} event indicating the updated allowance. Requirements: - `spender` cannot be the zero address. - `spender` must have allowance for the caller of at least `subtractedValue`."
      },
      "increaseAllowance(address,uint256)": {
        "details": "Atomically increases the allowance granted to `spender` by the caller. This is an alternative to {approve} that can be used as a mitigation for problems described in {IERC20-approve}. Emits an {Approval} event indicating the updated allowance. Requirements: - `spender` cannot be the zero address."
      },
      "name()": {
        "details": "Returns the name of the token."
      },
      "owner()": {
        "details": "Returns the address of the current owner."
      },
      "renounceOwnership()": {
        "details": "Leaves the contract without owner. It will not be possible to call `onlyOwner` functions anymore. Can only be called by the current owner. NOTE: Renouncing ownership will leave the contract without an owner, thereby removing any functionality that is only available to the owner."
      },
      "symbol()": {
        "details": "Returns the symbol of the token, usually a shorter version of the name."
      },
      "totalSupply()": {
        "details": "See {IERC20-totalSupply}."
      },
      "totalSupplyAt(uint256)": {
        "details": "Retrieves the total supply at the time `snapshotId` was created."
      },
      "transfer(address,uint256)": {
        "details": "See {IERC20-transfer}. Requirements: - `recipient` cannot be the zero address. - the caller must have a balance of at least `amount`."
      },
      "transferFrom(address,address,uint256)": {
        "details": "See {IERC20-transferFrom}. Emits an {Approval} event indicating the updated allowance. This is not required by the EIP. See the note at the beginning of {ERC20}. Requirements: - `sender` and `recipient` cannot be the zero address. - `sender` must have a balance of at least `amount`. - the caller must have allowance for ``sender``'s tokens of at least `amount`."
      },
      "transferOwnership(address)": {
        "details": "Transfers ownership of the contract to a new account (`newOwner`). Can only be called by the current owner."
      }
    },
    "version": 1
  },
  "userdoc": {
    "kind": "user",
    "methods": {},
    "version": 1
  }
}