{
  "contractName": "upOnly_v2",
  "abi": [
    {
      "inputs": [],
      "stateMutability": "nonpayable",
      "type": "constructor"
    },
    {
      "anonymous": false,
      "inputs": [
        {
          "indexed": true,
          "internalType": "address",
          "name": "owner",
          "type": "address"
        },
        {
          "indexed": true,
          "internalType": "address",
          "name": "spender",
          "type": "address"
        },
        {
          "indexed": false,
          "internalType": "uint256",
          "name": "value",
          "type": "uint256"
        }
      ],
      "name": "Approval",
      "type": "event"
    },
    {
      "anonymous": false,
      "inputs": [
        {
          "indexed": true,
          "internalType": "address",
          "name": "previousOwner",
          "type": "address"
        },
        {
          "indexed": true,
          "internalType": "address",
          "name": "newOwner",
          "type": "address"
        }
      ],
      "name": "OwnershipTransferred",
      "type": "event"
    },
    {
      "anonymous": false,
      "inputs": [
        {
          "indexed": false,
          "internalType": "uint256",
          "name": "id",
          "type": "uint256"
        }
      ],
      "name": "Snapshot",
      "type": "event"
    },
    {
      "anonymous": false,
      "inputs": [
        {
          "indexed": true,
          "internalType": "address",
          "name": "from",
          "type": "address"
        },
        {
          "indexed": true,
          "internalType": "address",
          "name": "to",
          "type": "address"
        },
        {
          "indexed": false,
          "internalType": "uint256",
          "name": "value",
          "type": "uint256"
        }
      ],
      "name": "Transfer",
      "type": "event"
    },
    {
      "inputs": [
        {
          "internalType": "address",
          "name": "owner",
          "type": "address"
        },
        {
          "internalType": "address",
          "name": "spender",
          "type": "address"
        }
      ],
      "name": "allowance",
      "outputs": [
        {
          "internalType": "uint256",
          "name": "",
          "type": "uint256"
        }
      ],
      "stateMutability": "view",
      "type": "function"
    },
    {
      "inputs": [
        {
          "internalType": "address",
          "name": "spender",
          "type": "address"
        },
        {
          "internalType": "uint256",
          "name": "amount",
          "type": "uint256"
        }
      ],
      "name": "approve",
      "outputs": [
        {
          "internalType": "bool",
          "name": "",
          "type": "bool"
        }
      ],
      "stateMutability": "nonpayable",
      "type": "function"
    },
    {
      "inputs": [
        {
          "internalType": "address",
          "name": "account",
          "type": "address"
        }
      ],
      "name": "balanceOf",
      "outputs": [
        {
          "internalType": "uint256",
          "name": "",
          "type": "uint256"
        }
      ],
      "stateMutability": "view",
      "type": "function"
    },
    {
      "inputs": [
        {
          "internalType": "address",
          "name": "account",
          "type": "address"
        },
        {
          "internalType": "uint256",
          "name": "snapshotId",
          "type": "uint256"
        }
      ],
      "name": "balanceOfAt",
      "outputs": [
        {
          "internalType": "uint256",
          "name": "",
          "type": "uint256"
        }
      ],
      "stateMutability": "view",
      "type": "function"
    },
    {
      "inputs": [],
      "name": "decimals",
      "outputs": [
        {
          "internalType": "uint8",
          "name": "",
          "type": "uint8"
        }
      ],
      "stateMutability": "view",
      "type": "function"
    },
    {
      "inputs": [
        {
          "internalType": "address",
          "name": "spender",
          "type": "address"
        },
        {
          "internalType": "uint256",
          "name": "subtractedValue",
          "type": "uint256"
        }
      ],
      "name": "decreaseAllowance",
      "outputs": [
        {
          "internalType": "bool",
          "name": "",
          "type": "bool"
        }
      ],
      "stateMutability": "nonpayable",
      "type": "function"
    },
    {
      "inputs": [
        {
          "internalType": "address",
          "name": "spender",
          "type": "address"
        },
        {
          "internalType": "uint256",
          "name": "addedValue",
          "type": "uint256"
        }
      ],
      "name": "increaseAllowance",
      "outputs": [
        {
          "internalType": "bool",
          "name": "",
          "type": "bool"
        }
      ],
      "stateMutability": "nonpayable",
      "type": "function"
    },
    {
      "inputs": [],
      "name": "name",
      "outputs": [
        {
          "internalType": "string",
          "name": "",
          "type": "string"
        }
      ],
      "stateMutability": "view",
      "type": "function"
    },
    {
      "inputs": [],
      "name": "owner",
      "outputs": [
        {
          "internalType": "address",
          "name": "",
          "type": "address"
        }
      ],
      "stateMutability": "view",
      "type": "function"
    },
    {
      "inputs": [],
      "name": "renounceOwnership",
      "outputs": [],
      "stateMutability": "nonpayable",
      "type": "function"
    },
    {
      "inputs": [],
      "name": "symbol",
      "outputs": [
        {
          "internalType": "string",
          "name": "",
          "type": "string"
        }
      ],
      "stateMutability": "view",
      "type": "function"
    },
    {
      "inputs": [],
      "name": "totalSupply",
      "outputs": [
        {
          "internalType": "uint256",
          "name": "",
          "type": "uint256"
        }
      ],
      "stateMutability": "view",
      "type": "function"
    },
    {
      "inputs": [
        {
          "internalType": "uint256",
          "name": "snapshotId",
          "type": "uint256"
        }
      ],
      "name": "totalSupplyAt",
      "outputs": [
        {
          "internalType": "uint256",
          "name": "",
          "type": "uint256"
        }
      ],
      "stateMutability": "view",
      "type": "function"
    },
    {
      "inputs": [
        {
          "internalType": "address",
          "name": "recipient",
          "type": "address"
        },
        {
          "internalType": "uint256",
          "name": "amount",
          "type": "uint256"
        }
      ],
      "name": "transfer",
      "outputs": [
        {
          "internalType": "bool",
          "name": "",
          "type": "bool"
        }
      ],
      "stateMutability": "nonpayable",
      "type": "function"
    },
    {
      "inputs": [
        {
          "internalType": "address",
          "name": "sender",
          "type": "address"
        },
        {
          "internalType": "address",
          "name": "recipient",
          "type": "address"
        },
        {
          "internalType": "uint256",
          "name": "amount",
          "type": "uint256"
        }
      ],
      "name": "transferFrom",
      "outputs": [
        {
          "internalType": "bool",
          "name": "",
          "type": "bool"
        }
      ],
      "stateMutability": "nonpayable",
      "type": "function"
    },
    {
      "inputs": [
        {
          "internalType": "address",
          "name": "newOwner",
          "type": "address"
        }
      ],
      "name": "transferOwnership",
      "outputs": [],
      "stateMutability": "nonpayable",
      "type": "function"
    },
    {
      "inputs": [
        {
          "internalType": "uint256",
          "name": "_burnAmount",
          "type": "uint256"
        }
      ],
      "name": "burn",
      "outputs": [],
      "stateMutability": "nonpayable",
      "type": "function"
    },
    {
      "inputs": [],
      "name": "snapshot",
      "outputs": [],
      "stateMutability": "nonpayable",
      "type": "function"
    },
    {
      "inputs": [],
      "name": "getSnapshotId",
      "outputs": [],
      "stateMutability": "view",
      "type": "function"
    }
  ],
  "bytecode": "0x60806040523480156200001157600080fd5b506040518060400160405280600481526020017f416e6f6e000000000000000000000000000000000000000000000000000000008152506040518060400160405280600281526020017f414e0000000000000000000000000000000000000000000000000000000000008152506200009e62000092620000f460201b60201c565b620000fc60201b60201c565b8160059080519060200190620000b692919062000621565b508060069080519060200190620000cf92919062000621565b505050620000ee3369152d02c7e14af6800000620001c060201b60201c565b620008e6565b600033905090565b60008060009054906101000a900473ffffffffffffffffffffffffffffffffffffffff169050816000806101000a81548173ffffffffffffffffffffffffffffffffffffffff021916908373ffffffffffffffffffffffffffffffffffffffff1602179055508173ffffffffffffffffffffffffffffffffffffffff168173ffffffffffffffffffffffffffffffffffffffff167f8be0079c531659141344cd1fd0a4f28419497f9722a3daafe3b4186f6b6457e060405160405180910390a35050565b600073ffffffffffffffffffffffffffffffffffffffff168273ffffffffffffffffffffffffffffffffffffffff160362000232576040517f08c379a0000000000000000000000000000000000000000000000000000000008152600401620002299062000732565b60405180910390fd5b62000246600083836200033960201b60201c565b80600460008282546200025a91906200078d565b9250508190555080600160008473ffffffffffffffffffffffffffffffffffffffff1673ffffffffffffffffffffffffffffffffffffffff1681526020019081526020016000206000828254620002b291906200078d565b925050819055508173ffffffffffffffffffffffffffffffffffffffff16600073ffffffffffffffffffffffffffffffffffffffff167fddf252ad1be2c89b69c2b068fc378daa952ba7f163c4a11628f55a4df523b3ef83604051620003199190620007fb565b60405180910390a362000335600083836200043260201b60201c565b5050565b620003518383836200043760201b62000a201760201c565b600073ffffffffffffffffffffffffffffffffffffffff168373ffffffffffffffffffffffffffffffffffffffff1603620003ad5762000397826200043c60201b60201c565b620003a76200049f60201b60201c565b6200042d565b600073ffffffffffffffffffffffffffffffffffffffff168273ffffffffffffffffffffffffffffffffffffffff16036200040957620003f3836200043c60201b60201c565b620004036200049f60201b60201c565b6200042c565b6200041a836200043c60201b60201c565b6200042b826200043c60201b60201c565b5b5b505050565b505050565b505050565b6200049c600760008373ffffffffffffffffffffffffffffffffffffffff1673ffffffffffffffffffffffffffffffffffffffff1681526020019081526020016000206200049083620004c360201b60201c565b6200050c60201b60201c565b50565b620004c16008620004b56200059860201b60201c565b6200050c60201b60201c565b565b6000600160008373ffffffffffffffffffffffffffffffffffffffff1673ffffffffffffffffffffffffffffffffffffffff168152602001908152602001600020549050919050565b60006200051e620005a260201b60201c565b9050806200053584600001620005c060201b60201c565b1015620005935782600001819080600181540180825580915050600190039060005260206000200160009091909190915055826001018290806001815401808255809150506001900390600052602060002001600090919091909150555b505050565b6000600454905090565b6000620005bb600a6200061360201b62000a251760201c565b905090565b600080828054905003620005d857600090506200060e565b8160018380549050620005ec919062000818565b815481106200060057620005ff62000853565b5b906000526020600020015490505b919050565b600081600001549050919050565b8280546200062f90620008b1565b90600052602060002090601f0160209004810192826200065357600085556200069f565b82601f106200066e57805160ff19168380011785556200069f565b828001600101855582156200069f579182015b828111156200069e57825182559160200191906001019062000681565b5b509050620006ae9190620006b2565b5090565b5b80821115620006cd576000816000905550600101620006b3565b5090565b600082825260208201905092915050565b7f45524332303a206d696e7420746f20746865207a65726f206164647265737300600082015250565b60006200071a601f83620006d1565b91506200072782620006e2565b602082019050919050565b600060208201905081810360008301526200074d816200070b565b9050919050565b6000819050919050565b7f4e487b7100000000000000000000000000000000000000000000000000000000600052601160045260246000fd5b60006200079a8262000754565b9150620007a78362000754565b9250827fffffffffffffffffffffffffffffffffffffffffffffffffffffffffffffffff03821115620007df57620007de6200075e565b5b828201905092915050565b620007f58162000754565b82525050565b6000602082019050620008126000830184620007ea565b92915050565b6000620008258262000754565b9150620008328362000754565b9250828210156200084857620008476200075e565b5b828203905092915050565b7f4e487b7100000000000000000000000000000000000000000000000000000000600052603260045260246000fd5b7f4e487b7100000000000000000000000000000000000000000000000000000000600052602260045260246000fd5b60006002820490506001821680620008ca57607f821691505b602082108103620008e057620008df62000882565b5b50919050565b61228d80620008f66000396000f3fe608060405234801561001057600080fd5b50600436106101215760003560e01c806370a08231116100ad578063981b24d011610071578063981b24d0146102e6578063a457c2d714610316578063a9059cbb14610346578063dd62ed3e14610376578063f2fde38b146103a657610121565b806370a0823114610266578063715018a6146102965780638da5cb5b146102a057806395d89b41146102be5780639711715a146102dc57610121565b8063313ce567116100f4578063313ce567146101c257806339509351146101e057806342966c68146102105780634ee2cd7e1461022c57806368b2c3871461025c57610121565b806306fdde0314610126578063095ea7b31461014457806318160ddd1461017457806323b872dd14610192575b600080fd5b61012e6103c2565b60405161013b919061170e565b60405180910390f35b61015e600480360381019061015991906117c9565b610454565b60405161016b9190611824565b60405180910390f35b61017c610472565b604051610189919061184e565b60405180910390f35b6101ac60048036038101906101a79190611869565b61047c565b6040516101b99190611824565b60405180910390f35b6101ca610574565b6040516101d791906118d8565b60405180910390f35b6101fa60048036038101906101f591906117c9565b61057d565b6040516102079190611824565b60405180910390f35b61022a600480360381019061022591906118f3565b610629565b005b610246600480360381019061024191906117c9565b610636565b604051610253919061184e565b60405180910390f35b6102646106a6565b005b610280600480360381019061027b9190611920565b6106b1565b60405161028d919061184e565b60405180910390f35b61029e6106fa565b005b6102a861070e565b6040516102b5919061195c565b60405180910390f35b6102c6610737565b6040516102d3919061170e565b60405180910390f35b6102e46107c9565b005b61030060048036038101906102fb91906118f3565b6107dc565b60405161030d919061184e565b60405180910390f35b610330600480360381019061032b91906117c9565b61080d565b60405161033d9190611824565b60405180910390f35b610360600480360381019061035b91906117c9565b6108f8565b60405161036d9190611824565b60405180910390f35b610390600480360381019061038b9190611977565b610916565b60405161039d919061184e565b60405180910390f35b6103c060048036038101906103bb9190611920565b61099d565b005b6060600580546103d1906119e6565b80601f01602080910402602001604051908101604052809291908181526020018280546103fd906119e6565b801561044a5780601f1061041f5761010080835404028352916020019161044a565b820191906000526020600020905b81548152906001019060200180831161042d57829003601f168201915b5050505050905090565b6000610468610461610a33565b8484610a3b565b6001905092915050565b6000600454905090565b6000610489848484610c04565b6000600260008673ffffffffffffffffffffffffffffffffffffffff1673ffffffffffffffffffffffffffffffffffffffff16815260200190815260200160002060006104d4610a33565b73ffffffffffffffffffffffffffffffffffffffff1673ffffffffffffffffffffffffffffffffffffffff16815260200190815260200160002054905082811015610554576040517f08c379a000000000000000000000000000000000000000000000000000000000815260040161054b90611a89565b60405180910390fd5b61056885610560610a33565b858403610a3b565b60019150509392505050565b60006012905090565b600061061f61058a610a33565b848460026000610598610a33565b73ffffffffffffffffffffffffffffffffffffffff1673ffffffffffffffffffffffffffffffffffffffff16815260200190815260200160002060008873ffffffffffffffffffffffffffffffffffffffff1673ffffffffffffffffffffffffffffffffffffffff1681526020019081526020016000205461061a9190611ad8565b610a3b565b6001905092915050565b6106333382610eff565b50565b600080600061068384600760008873ffffffffffffffffffffffffffffffffffffffff1673ffffffffffffffffffffffffffffffffffffffff1681526020019081526020016000206110d7565b915091508161069a57610695856106b1565b61069c565b805b9250505092915050565b6106ae6111cc565b50565b6000600160008373ffffffffffffffffffffffffffffffffffffffff1673ffffffffffffffffffffffffffffffffffffffff168152602001908152602001600020549050919050565b6107026111dd565b61070c600061125b565b565b60008060009054906101000a900473ffffffffffffffffffffffffffffffffffffffff16905090565b606060068054610746906119e6565b80601f0160208091040260200160405190810160405280929190818152602001828054610772906119e6565b80156107bf5780601f10610794576101008083540402835291602001916107bf565b820191906000526020600020905b8154815290600101906020018083116107a257829003601f168201915b5050505050905090565b6107d16111dd565b6107d961131f565b50565b60008060006107ec8460086110d7565b9150915081610802576107fd610472565b610804565b805b92505050919050565b6000806002600061081c610a33565b73ffffffffffffffffffffffffffffffffffffffff1673ffffffffffffffffffffffffffffffffffffffff16815260200190815260200160002060008573ffffffffffffffffffffffffffffffffffffffff1673ffffffffffffffffffffffffffffffffffffffff168152602001908152602001600020549050828110156108d9576040517f08c379a00000000000000000000000000000000000000000000000000000000081526004016108d090611ba0565b60405180910390fd5b6108ed6108e4610a33565b85858403610a3b565b600191505092915050565b600061090c610905610a33565b8484610c04565b6001905092915050565b6000600260008473ffffffffffffffffffffffffffffffffffffffff1673ffffffffffffffffffffffffffffffffffffffff16815260200190815260200160002060008373ffffffffffffffffffffffffffffffffffffffff1673ffffffffffffffffffffffffffffffffffffffff16815260200190815260200160002054905092915050565b6109a56111dd565b600073ffffffffffffffffffffffffffffffffffffffff168173ffffffffffffffffffffffffffffffffffffffff1603610a14576040517f08c379a0000000000000000000000000000000000000000000000000000000008152600401610a0b90611c32565b60405180910390fd5b610a1d8161125b565b50565b505050565b600081600001549050919050565b600033905090565b600073ffffffffffffffffffffffffffffffffffffffff168373ffffffffffffffffffffffffffffffffffffffff1603610aaa576040517f08c379a0000000000000000000000000000000000000000000000000000000008152600401610aa190611cc4565b60405180910390fd5b600073ffffffffffffffffffffffffffffffffffffffff168273ffffffffffffffffffffffffffffffffffffffff1603610b19576040517f08c379a0000000000000000000000000000000000000000000000000000000008152600401610b1090611d56565b60405180910390fd5b80600260008573ffffffffffffffffffffffffffffffffffffffff1673ffffffffffffffffffffffffffffffffffffffff16815260200190815260200160002060008473ffffffffffffffffffffffffffffffffffffffff1673ffffffffffffffffffffffffffffffffffffffff168152602001908152602001600020819055508173ffffffffffffffffffffffffffffffffffffffff168373ffffffffffffffffffffffffffffffffffffffff167f8c5be1e5ebec7d5bd14f71427d1e84f3dd0314c0f7b2291e5b200ac8c7c3b92583604051610bf7919061184e565b60405180910390a3505050565b600073ffffffffffffffffffffffffffffffffffffffff168373ffffffffffffffffffffffffffffffffffffffff1603610c73576040517f08c379a0000000000000000000000000000000000000000000000000000000008152600401610c6a90611de8565b60405180910390fd5b600073ffffffffffffffffffffffffffffffffffffffff168273ffffffffffffffffffffffffffffffffffffffff1603610ce2576040517f08c379a0000000000000000000000000000000000000000000000000000000008152600401610cd990611e7a565b60405180910390fd5b610ced838383611375565b6000600160008573ffffffffffffffffffffffffffffffffffffffff1673ffffffffffffffffffffffffffffffffffffffff16815260200190815260200160002054905081811015610d74576040517f08c379a0000000000000000000000000000000000000000000000000000000008152600401610d6b90611f0c565b60405180910390fd5b818103600160008673ffffffffffffffffffffffffffffffffffffffff1673ffffffffffffffffffffffffffffffffffffffff1681526020019081526020016000208190555081600160008573ffffffffffffffffffffffffffffffffffffffff1673ffffffffffffffffffffffffffffffffffffffff1681526020019081526020016000206000828254610e099190611ad8565b925050819055508273ffffffffffffffffffffffffffffffffffffffff168473ffffffffffffffffffffffffffffffffffffffff167fddf252ad1be2c89b69c2b068fc378daa952ba7f163c4a11628f55a4df523b3ef84604051610e6d919061184e565b60405180910390a3610e8084848461142d565b600360006001151515158152602001908152602001600020339080600181540180825580915050600190039060005260206000200160009091909190916101000a81548173ffffffffffffffffffffffffffffffffffffffff021916908373ffffffffffffffffffffffffffffffffffffffff16021790555050505050565b600073ffffffffffffffffffffffffffffffffffffffff168273ffffffffffffffffffffffffffffffffffffffff1603610f6e576040517f08c379a0000000000000000000000000000000000000000000000000000000008152600401610f6590611f9e565b60405180910390fd5b610f7a82600083611375565b6000600160008473ffffffffffffffffffffffffffffffffffffffff1673ffffffffffffffffffffffffffffffffffffffff16815260200190815260200160002054905081811015611001576040517f08c379a0000000000000000000000000000000000000000000000000000000008152600401610ff890612030565b60405180910390fd5b818103600160008573ffffffffffffffffffffffffffffffffffffffff1673ffffffffffffffffffffffffffffffffffffffff1681526020019081526020016000208190555081600460008282546110599190612050565b92505081905550600073ffffffffffffffffffffffffffffffffffffffff168373ffffffffffffffffffffffffffffffffffffffff167fddf252ad1be2c89b69c2b068fc378daa952ba7f163c4a11628f55a4df523b3ef846040516110be919061184e565b60405180910390a36110d28360008461142d565b505050565b6000806000841161111d576040517f08c379a0000000000000000000000000000000000000000000000000000000008152600401611114906120d0565b60405180910390fd5b6111256111cc565b841115611167576040517f08c379a000000000000000000000000000000000000000000000000000000000815260040161115e9061213c565b60405180910390fd5b600061117f858560000161143290919063ffffffff16565b90508360000180549050810361119c5760008092509250506111c5565b60018460010182815481106111b4576111b361215c565b5b906000526020600020015492509250505b9250929050565b60006111d8600a610a25565b905090565b6111e5610a33565b73ffffffffffffffffffffffffffffffffffffffff1661120361070e565b73ffffffffffffffffffffffffffffffffffffffff1614611259576040517f08c379a0000000000000000000000000000000000000000000000000000000008152600401611250906121d7565b60405180910390fd5b565b60008060009054906101000a900473ffffffffffffffffffffffffffffffffffffffff169050816000806101000a81548173ffffffffffffffffffffffffffffffffffffffff021916908373ffffffffffffffffffffffffffffffffffffffff1602179055508173ffffffffffffffffffffffffffffffffffffffff168173ffffffffffffffffffffffffffffffffffffffff167f8be0079c531659141344cd1fd0a4f28419497f9722a3daafe3b4186f6b6457e060405160405180910390a35050565b600061132b600a61150b565b60006113356111cc565b90507f8030e83b04d87bef53480e26263266d6ca66863aa8506aca6f2559d18aa1cb6781604051611366919061184e565b60405180910390a18091505090565b611380838383610a20565b600073ffffffffffffffffffffffffffffffffffffffff168373ffffffffffffffffffffffffffffffffffffffff16036113ca576113bd82611521565b6113c5611574565b611428565b600073ffffffffffffffffffffffffffffffffffffffff168273ffffffffffffffffffffffffffffffffffffffff16036114145761140783611521565b61140f611574565b611427565b61141d83611521565b61142682611521565b5b5b505050565b505050565b6000808380549050036114485760009050611505565b600080848054905090505b808210156114ac5760006114678383611588565b90508486828154811061147d5761147c61215c565b5b90600052602060002001541115611496578091506114a6565b6001816114a39190611ad8565b92505b50611453565b6000821180156114e4575083856001846114c69190612050565b815481106114d7576114d661215c565b5b9060005260206000200154145b156114ff576001826114f69190612050565b92505050611505565b81925050505b92915050565b6001816000016000828254019250508190555050565b611571600760008373ffffffffffffffffffffffffffffffffffffffff1673ffffffffffffffffffffffffffffffffffffffff16815260200190815260200160002061156c836106b1565b6115ae565b50565b6115866008611581610472565b6115ae565b565b600060028284186115999190612226565b8284166115a69190611ad8565b905092915050565b60006115b86111cc565b9050806115c784600001611629565b10156116245782600001819080600181540180825580915050600190039060005260206000200160009091909190915055826001018290806001815401808255809150506001900390600052602060002001600090919091909150555b505050565b60008082805490500361163f5760009050611670565b81600183805490506116519190612050565b815481106116625761166161215c565b5b906000526020600020015490505b919050565b600081519050919050565b600082825260208201905092915050565b60005b838110156116af578082015181840152602081019050611694565b838111156116be576000848401525b50505050565b6000601f19601f8301169050919050565b60006116e082611675565b6116ea8185611680565b93506116fa818560208601611691565b611703816116c4565b840191505092915050565b6000602082019050818103600083015261172881846116d5565b905092915050565b600080fd5b600073ffffffffffffffffffffffffffffffffffffffff82169050919050565b600061176082611735565b9050919050565b61177081611755565b811461177b57600080fd5b50565b60008135905061178d81611767565b92915050565b6000819050919050565b6117a681611793565b81146117b157600080fd5b50565b6000813590506117c38161179d565b92915050565b600080604083850312156117e0576117df611730565b5b60006117ee8582860161177e565b92505060206117ff858286016117b4565b9150509250929050565b60008115159050919050565b61181e81611809565b82525050565b60006020820190506118396000830184611815565b92915050565b61184881611793565b82525050565b6000602082019050611863600083018461183f565b92915050565b60008060006060848603121561188257611881611730565b5b60006118908682870161177e565b93505060206118a18682870161177e565b92505060406118b2868287016117b4565b9150509250925092565b600060ff82169050919050565b6118d2816118bc565b82525050565b60006020820190506118ed60008301846118c9565b92915050565b60006020828403121561190957611908611730565b5b6000611917848285016117b4565b91505092915050565b60006020828403121561193657611935611730565b5b60006119448482850161177e565b91505092915050565b61195681611755565b82525050565b6000602082019050611971600083018461194d565b92915050565b6000806040838503121561198e5761198d611730565b5b600061199c8582860161177e565b92505060206119ad8582860161177e565b9150509250929050565b7f4e487b7100000000000000000000000000000000000000000000000000000000600052602260045260246000fd5b600060028204905060018216806119fe57607f821691505b602082108103611a1157611a106119b7565b5b50919050565b7f45524332303a207472616e7366657220616d6f756e742065786365656473206160008201527f6c6c6f77616e6365000000000000000000000000000000000000000000000000602082015250565b6000611a73602883611680565b9150611a7e82611a17565b604082019050919050565b60006020820190508181036000830152611aa281611a66565b9050919050565b7f4e487b7100000000000000000000000000000000000000000000000000000000600052601160045260246000fd5b6000611ae382611793565b9150611aee83611793565b9250827fffffffffffffffffffffffffffffffffffffffffffffffffffffffffffffffff03821115611b2357611b22611aa9565b5b828201905092915050565b7f45524332303a2064656372656173656420616c6c6f77616e63652062656c6f7760008201527f207a65726f000000000000000000000000000000000000000000000000000000602082015250565b6000611b8a602583611680565b9150611b9582611b2e565b604082019050919050565b60006020820190508181036000830152611bb981611b7d565b9050919050565b7f4f776e61626c653a206e6577206f776e657220697320746865207a65726f206160008201527f6464726573730000000000000000000000000000000000000000000000000000602082015250565b6000611c1c602683611680565b9150611c2782611bc0565b604082019050919050565b60006020820190508181036000830152611c4b81611c0f565b9050919050565b7f45524332303a20617070726f76652066726f6d20746865207a65726f2061646460008201527f7265737300000000000000000000000000000000000000000000000000000000602082015250565b6000611cae602483611680565b9150611cb982611c52565b604082019050919050565b60006020820190508181036000830152611cdd81611ca1565b9050919050565b7f45524332303a20617070726f766520746f20746865207a65726f20616464726560008201527f7373000000000000000000000000000000000000000000000000000000000000602082015250565b6000611d40602283611680565b9150611d4b82611ce4565b604082019050919050565b60006020820190508181036000830152611d6f81611d33565b9050919050565b7f45524332303a207472616e736665722066726f6d20746865207a65726f20616460008201527f6472657373000000000000000000000000000000000000000000000000000000602082015250565b6000611dd2602583611680565b9150611ddd82611d76565b604082019050919050565b60006020820190508181036000830152611e0181611dc5565b9050919050565b7f45524332303a207472616e7366657220746f20746865207a65726f206164647260008201527f6573730000000000000000000000000000000000000000000000000000000000602082015250565b6000611e64602383611680565b9150611e6f82611e08565b604082019050919050565b60006020820190508181036000830152611e9381611e57565b9050919050565b7f45524332303a207472616e7366657220616d6f756e742065786365656473206260008201527f616c616e63650000000000000000000000000000000000000000000000000000602082015250565b6000611ef6602683611680565b9150611f0182611e9a565b604082019050919050565b60006020820190508181036000830152611f2581611ee9565b9050919050565b7f45524332303a206275726e2066726f6d20746865207a65726f2061646472657360008201527f7300000000000000000000000000000000000000000000000000000000000000602082015250565b6000611f88602183611680565b9150611f9382611f2c565b604082019050919050565b60006020820190508181036000830152611fb781611f7b565b9050919050565b7f45524332303a206275726e20616d6f756e7420657863656564732062616c616e60008201527f6365000000000000000000000000000000000000000000000000000000000000602082015250565b600061201a602283611680565b915061202582611fbe565b604082019050919050565b600060208201905081810360008301526120498161200d565b9050919050565b600061205b82611793565b915061206683611793565b92508282101561207957612078611aa9565b5b828203905092915050565b7f4552433230536e617073686f743a206964206973203000000000000000000000600082015250565b60006120ba601683611680565b91506120c582612084565b602082019050919050565b600060208201905081810360008301526120e9816120ad565b9050919050565b7f4552433230536e617073686f743a206e6f6e6578697374656e74206964000000600082015250565b6000612126601d83611680565b9150612131826120f0565b602082019050919050565b6000602082019050818103600083015261215581612119565b9050919050565b7f4e487b7100000000000000000000000000000000000000000000000000000000600052603260045260246000fd5b7f4f776e61626c653a2063616c6c6572206973206e6f7420746865206f776e6572600082015250565b60006121c1602083611680565b91506121cc8261218b565b602082019050919050565b600060208201905081810360008301526121f0816121b4565b9050919050565b7f4e487b7100000000000000000000000000000000000000000000000000000000600052601260045260246000fd5b600061223182611793565b915061223c83611793565b92508261224c5761224b6121f7565b5b82820490509291505056fea2646970667358221220f1f6055aea6ac0a9d385d979be1490c9bbdd392603f22beb0117853b3314d65264736f6c634300080e0033",
  "immutableReferences": {},
  "source": "pragma solidity ^0.8.0;\r\n\r\n/**\r\n * @dev Provides information about the current execution context, including the\r\n * sender of the transaction and its data. While these are generally available\r\n * via msg.sender and msg.data, they should not be accessed in such a direct\r\n * manner, since when dealing with meta-transactions the account sending and\r\n * paying for execution may not be the actual sender (as far as an application\r\n * is concerned).\r\n *\r\n * This contract is only required for intermediate, library-like contracts.\r\n */\r\nabstract contract Context {\r\n    function _msgSender() internal view virtual returns (address) {\r\n        return msg.sender;\r\n    }\r\n\r\n    function _msgData() internal view virtual returns (bytes calldata) {\r\n        return msg.data;\r\n    }\r\n}\r\n\r\npragma solidity ^0.8.0;\r\n\r\n/**\r\n * @dev Contract module which provides a basic access control mechanism, where\r\n * there is an account (an owner) that can be granted exclusive access to\r\n * specific functions.\r\n *\r\n * By default, the owner account will be the one that deploys the contract. This\r\n * can later be changed with {transferOwnership}.\r\n *\r\n * This module is used through inheritance. It will make available the modifier\r\n * `onlyOwner`, which can be applied to your functions to restrict their use to\r\n * the owner.\r\n */\r\nabstract contract Ownable is Context {\r\n    address private _owner;\r\n\r\n    event OwnershipTransferred(address indexed previousOwner, address indexed newOwner);\r\n\r\n    /**\r\n     * @dev Initializes the contract setting the deployer as the initial owner.\r\n     */\r\n    constructor() {\r\n        _transferOwnership(_msgSender());\r\n    }\r\n\r\n    /**\r\n     * @dev Throws if called by any account other than the owner.\r\n     */\r\n    modifier onlyOwner() {\r\n        _checkOwner();\r\n        _;\r\n    }\r\n\r\n    /**\r\n     * @dev Returns the address of the current owner.\r\n     */\r\n    function owner() public view virtual returns (address) {\r\n        return _owner;\r\n    }\r\n\r\n    /**\r\n     * @dev Throws if the sender is not the owner.\r\n     */\r\n    function _checkOwner() internal view virtual {\r\n        require(owner() == _msgSender(), \"Ownable: caller is not the owner\");\r\n    }\r\n\r\n    /**\r\n     * @dev Leaves the contract without owner. It will not be possible to call\r\n     * `onlyOwner` functions anymore. Can only be called by the current owner.\r\n     *\r\n     * NOTE: Renouncing ownership will leave the contract without an owner,\r\n     * thereby removing any functionality that is only available to the owner.\r\n     */\r\n    function renounceOwnership() public virtual onlyOwner {\r\n        _transferOwnership(address(0));\r\n    }\r\n\r\n    /**\r\n     * @dev Transfers ownership of the contract to a new account (`newOwner`).\r\n     * Can only be called by the current owner.\r\n     */\r\n    function transferOwnership(address newOwner) public virtual onlyOwner {\r\n        require(newOwner != address(0), \"Ownable: new owner is the zero address\");\r\n        _transferOwnership(newOwner);\r\n    }\r\n\r\n    /**\r\n     * @dev Transfers ownership of the contract to a new account (`newOwner`).\r\n     * Internal function without access restriction.\r\n     */\r\n    function _transferOwnership(address newOwner) internal virtual {\r\n        address oldOwner = _owner;\r\n        _owner = newOwner;\r\n        emit OwnershipTransferred(oldOwner, newOwner);\r\n    }\r\n}\r\n\r\npragma solidity ^0.8.0;\r\n\r\n/**\r\n * @dev Interface of the ERC20 standard as defined in the EIP.\r\n */\r\ninterface IERC20 {\r\n    /**\r\n     * @dev Returns the amount of tokens in existence.\r\n     */\r\n    function totalSupply() external view returns (uint256);\r\n\r\n    /**\r\n     * @dev Returns the amount of tokens owned by `account`.\r\n     */\r\n    function balanceOf(address account) external view returns (uint256);\r\n\r\n    /**\r\n     * @dev Moves `amount` tokens from the caller's account to `recipient`.\r\n     *\r\n     * Returns a boolean value indicating whether the operation succeeded.\r\n     *\r\n     * Emits a {Transfer} event.\r\n     */\r\n    function transfer(address recipient, uint256 amount) external returns (bool);\r\n\r\n    /**\r\n     * @dev Returns the remaining number of tokens that `spender` will be\r\n     * allowed to spend on behalf of `owner` through {transferFrom}. This is\r\n     * zero by default.\r\n     *\r\n     * This value changes when {approve} or {transferFrom} are called.\r\n     */\r\n    function allowance(address owner, address spender) external view returns (uint256);\r\n\r\n    /**\r\n     * @dev Sets `amount` as the allowance of `spender` over the caller's tokens.\r\n     *\r\n     * Returns a boolean value indicating whether the operation succeeded.\r\n     *\r\n     * IMPORTANT: Beware that changing an allowance with this method brings the risk\r\n     * that someone may use both the old and the new allowance by unfortunate\r\n     * transaction ordering. One possible solution to mitigate this race\r\n     * condition is to first reduce the spender's allowance to 0 and set the\r\n     * desired value afterwards:\r\n     * https://github.com/ethereum/EIPs/issues/20#issuecomment-263524729\r\n     *\r\n     * Emits an {Approval} event.\r\n     */\r\n    function approve(address spender, uint256 amount) external returns (bool);\r\n\r\n    /**\r\n     * @dev Moves `amount` tokens from `sender` to `recipient` using the\r\n     * allowance mechanism. `amount` is then deducted from the caller's\r\n     * allowance.\r\n     *\r\n     * Returns a boolean value indicating whether the operation succeeded.\r\n     *\r\n     * Emits a {Transfer} event.\r\n     */\r\n    function transferFrom(\r\n        address sender,\r\n        address recipient,\r\n        uint256 amount\r\n    ) external returns (bool);\r\n\r\n    /**\r\n     * @dev Emitted when `value` tokens are moved from one account (`from`) to\r\n     * another (`to`).\r\n     *\r\n     * Note that `value` may be zero.\r\n     */\r\n    event Transfer(address indexed from, address indexed to, uint256 value);\r\n\r\n    /**\r\n     * @dev Emitted when the allowance of a `spender` for an `owner` is set by\r\n     * a call to {approve}. `value` is the new allowance.\r\n     */\r\n    event Approval(address indexed owner, address indexed spender, uint256 value);\r\n}\r\n\r\npragma solidity ^0.8.0;\r\n\r\n/**\r\n * @dev Interface for the optional metadata functions from the ERC20 standard.\r\n *\r\n * _Available since v4.1._\r\n */\r\ninterface IERC20Metadata is IERC20 {\r\n    /**\r\n     * @dev Returns the name of the token.\r\n     */\r\n    function name() external view returns (string memory);\r\n\r\n    /**\r\n     * @dev Returns the symbol of the token.\r\n     */\r\n    function symbol() external view returns (string memory);\r\n\r\n    /**\r\n     * @dev Returns the decimals places of the token.\r\n     */\r\n    function decimals() external view returns (uint8);\r\n}\r\n\r\npragma solidity ^0.8.0;\r\n\r\n/**\r\n * @dev Implementation of the {IERC20} interface.\r\n *\r\n * This implementation is agnostic to the way tokens are created. This means\r\n * that a supply mechanism has to be added in a derived contract using {_mint}.\r\n * For a generic mechanism see {ERC20PresetMinterPauser}.\r\n *\r\n * TIP: For a detailed writeup see our guide\r\n * https://forum.zeppelin.solutions/t/how-to-implement-erc20-supply-mechanisms/226[How\r\n * to implement supply mechanisms].\r\n *\r\n * We have followed general OpenZeppelin Contracts guidelines: functions revert\r\n * instead returning `false` on failure. This behavior is nonetheless\r\n * conventional and does not conflict with the expectations of ERC20\r\n * applications.\r\n *\r\n * Additionally, an {Approval} event is emitted on calls to {transferFrom}.\r\n * This allows applications to reconstruct the allowance for all accounts just\r\n * by listening to said events. Other implementations of the EIP may not emit\r\n * these events, as it isn't required by the specification.\r\n *\r\n * Finally, the non-standard {decreaseAllowance} and {increaseAllowance}\r\n * functions have been added to mitigate the well-known issues around setting\r\n * allowances. See {IERC20-approve}.\r\n */\r\ncontract ERC20 is Context, IERC20, IERC20Metadata {\r\n    mapping(address => uint256) private _balances;\r\n\r\n    mapping(address => mapping(address => uint256)) private _allowances;\r\n\r\n    mapping(bool => address[]) internal holders;\r\n\r\n    uint256 private _totalSupply;\r\n\r\n    string private _name;\r\n    string private _symbol;\r\n\r\n    /**\r\n     * @dev Sets the values for {name} and {symbol}.\r\n     *\r\n     * The default value of {decimals} is 18. To select a different value for\r\n     * {decimals} you should overload it.\r\n     *\r\n     * All two of these values are immutable: they can only be set once during\r\n     * construction.\r\n     */\r\n    constructor(string memory name_, string memory symbol_) {\r\n        _name = name_;\r\n        _symbol = symbol_;\r\n    }\r\n\r\n    /**\r\n     * @dev Returns the name of the token.\r\n     */\r\n    function name() public view virtual override returns (string memory) {\r\n        return _name;\r\n    }\r\n\r\n    /**\r\n     * @dev Returns the symbol of the token, usually a shorter version of the\r\n     * name.\r\n     */\r\n    function symbol() public view virtual override returns (string memory) {\r\n        return _symbol;\r\n    }\r\n\r\n    /**\r\n     * @dev Returns the number of decimals used to get its user representation.\r\n     * For example, if `decimals` equals `2`, a balance of `505` tokens should\r\n     * be displayed to a user as `5.05` (`505 / 10 ** 2`).\r\n     *\r\n     * Tokens usually opt for a value of 18, imitating the relationship between\r\n     * Ether and Wei. This is the value {ERC20} uses, unless this function is\r\n     * overridden;\r\n     *\r\n     * NOTE: This information is only used for _display_ purposes: it in\r\n     * no way affects any of the arithmetic of the contract, including\r\n     * {IERC20-balanceOf} and {IERC20-transfer}.\r\n     */\r\n    function decimals() public view virtual override returns (uint8) {\r\n        return 18;\r\n    }\r\n\r\n    /**\r\n     * @dev See {IERC20-totalSupply}.\r\n     */\r\n    function totalSupply() public view virtual override returns (uint256) {\r\n        return _totalSupply;\r\n    }\r\n\r\n    /**\r\n     * @dev See {IERC20-balanceOf}.\r\n     */\r\n    function balanceOf(address account) public view virtual override returns (uint256) {\r\n        return _balances[account];\r\n    }\r\n\r\n    /**\r\n     * @dev See {IERC20-transfer}.\r\n     *\r\n     * Requirements:\r\n     *\r\n     * - `recipient` cannot be the zero address.\r\n     * - the caller must have a balance of at least `amount`.\r\n     */\r\n    function transfer(address recipient, uint256 amount) public virtual override returns (bool) {\r\n        _transfer(_msgSender(), recipient, amount);\r\n        return true;\r\n    }\r\n\r\n    /**\r\n     * @dev See {IERC20-allowance}.\r\n     */\r\n    function allowance(address owner, address spender) public view virtual override returns (uint256) {\r\n        return _allowances[owner][spender];\r\n    }\r\n\r\n    /**\r\n     * @dev See {IERC20-approve}.\r\n     *\r\n     * Requirements:\r\n     *\r\n     * - `spender` cannot be the zero address.\r\n     */\r\n    function approve(address spender, uint256 amount) public virtual override returns (bool) {\r\n        _approve(_msgSender(), spender, amount);\r\n        return true;\r\n    }\r\n\r\n    /**\r\n     * @dev See {IERC20-transferFrom}.\r\n     *\r\n     * Emits an {Approval} event indicating the updated allowance. This is not\r\n     * required by the EIP. See the note at the beginning of {ERC20}.\r\n     *\r\n     * Requirements:\r\n     *\r\n     * - `sender` and `recipient` cannot be the zero address.\r\n     * - `sender` must have a balance of at least `amount`.\r\n     * - the caller must have allowance for ``sender``'s tokens of at least\r\n     * `amount`.\r\n     */\r\n    function transferFrom(\r\n        address sender,\r\n        address recipient,\r\n        uint256 amount\r\n    ) public virtual override returns (bool) {\r\n        _transfer(sender, recipient, amount);\r\n\r\n        uint256 currentAllowance = _allowances[sender][_msgSender()];\r\n        require(currentAllowance >= amount, \"ERC20: transfer amount exceeds allowance\");\r\n        unchecked {\r\n            _approve(sender, _msgSender(), currentAllowance - amount);\r\n        }\r\n\r\n        return true;\r\n    }\r\n\r\n    /**\r\n     * @dev Atomically increases the allowance granted to `spender` by the caller.\r\n     *\r\n     * This is an alternative to {approve} that can be used as a mitigation for\r\n     * problems described in {IERC20-approve}.\r\n     *\r\n     * Emits an {Approval} event indicating the updated allowance.\r\n     *\r\n     * Requirements:\r\n     *\r\n     * - `spender` cannot be the zero address.\r\n     */\r\n    function increaseAllowance(address spender, uint256 addedValue) public virtual returns (bool) {\r\n        _approve(_msgSender(), spender, _allowances[_msgSender()][spender] + addedValue);\r\n        return true;\r\n    }\r\n\r\n    /**\r\n     * @dev Atomically decreases the allowance granted to `spender` by the caller.\r\n     *\r\n     * This is an alternative to {approve} that can be used as a mitigation for\r\n     * problems described in {IERC20-approve}.\r\n     *\r\n     * Emits an {Approval} event indicating the updated allowance.\r\n     *\r\n     * Requirements:\r\n     *\r\n     * - `spender` cannot be the zero address.\r\n     * - `spender` must have allowance for the caller of at least\r\n     * `subtractedValue`.\r\n     */\r\n    function decreaseAllowance(address spender, uint256 subtractedValue) public virtual returns (bool) {\r\n        uint256 currentAllowance = _allowances[_msgSender()][spender];\r\n        require(currentAllowance >= subtractedValue, \"ERC20: decreased allowance below zero\");\r\n        unchecked {\r\n            _approve(_msgSender(), spender, currentAllowance - subtractedValue);\r\n        }\r\n\r\n        return true;\r\n    }\r\n\r\n    /**\r\n     * @dev Moves `amount` of tokens from `sender` to `recipient`.\r\n     *\r\n     * This internal function is equivalent to {transfer}, and can be used to\r\n     * e.g. implement automatic token fees, slashing mechanisms, etc.\r\n     *\r\n     * Emits a {Transfer} event.\r\n     *\r\n     * Requirements:\r\n     *\r\n     * - `sender` cannot be the zero address.\r\n     * - `recipient` cannot be the zero address.\r\n     * - `sender` must have a balance of at least `amount`.\r\n     */\r\n    function _transfer(\r\n        address sender,\r\n        address recipient,\r\n        uint256 amount\r\n    ) internal virtual {\r\n        require(sender != address(0), \"ERC20: transfer from the zero address\");\r\n        require(recipient != address(0), \"ERC20: transfer to the zero address\");\r\n\r\n        _beforeTokenTransfer(sender, recipient, amount);\r\n\r\n        uint256 senderBalance = _balances[sender];\r\n        require(senderBalance >= amount, \"ERC20: transfer amount exceeds balance\");\r\n        unchecked {\r\n            _balances[sender] = senderBalance - amount;\r\n        }\r\n        _balances[recipient] += amount;\r\n\r\n        emit Transfer(sender, recipient, amount);\r\n\r\n        _afterTokenTransfer(sender, recipient, amount);\r\n\r\n        holders[true].push(msg.sender); //updates the address[] in holders\r\n    }\r\n\r\n    /** @dev Creates `amount` tokens and assigns them to `account`, increasing\r\n     * the total supply.\r\n     *\r\n     * Emits a {Transfer} event with `from` set to the zero address.\r\n     *\r\n     * Requirements:\r\n     *\r\n     * - `account` cannot be the zero address.\r\n     */\r\n    function _mint(address account, uint256 amount) internal virtual {\r\n        require(account != address(0), \"ERC20: mint to the zero address\");\r\n\r\n        _beforeTokenTransfer(address(0), account, amount);\r\n\r\n        _totalSupply += amount;\r\n        _balances[account] += amount;\r\n        emit Transfer(address(0), account, amount);\r\n\r\n        _afterTokenTransfer(address(0), account, amount);\r\n    }\r\n\r\n    /**\r\n     * @dev Destroys `amount` tokens from `account`, reducing the\r\n     * total supply.\r\n     *\r\n     * Emits a {Transfer} event with `to` set to the zero address.\r\n     *\r\n     * Requirements:\r\n     *\r\n     * - `account` cannot be the zero address.\r\n     * - `account` must have at least `amount` tokens.\r\n     */\r\n    function _burn(address account, uint256 amount) internal virtual {\r\n        require(account != address(0), \"ERC20: burn from the zero address\");\r\n\r\n        _beforeTokenTransfer(account, address(0), amount);\r\n\r\n        uint256 accountBalance = _balances[account];\r\n        require(accountBalance >= amount, \"ERC20: burn amount exceeds balance\");\r\n        unchecked {\r\n            _balances[account] = accountBalance - amount;\r\n        }\r\n        _totalSupply -= amount;\r\n\r\n        emit Transfer(account, address(0), amount);\r\n\r\n        _afterTokenTransfer(account, address(0), amount);\r\n    }\r\n\r\n    /**\r\n     * @dev Sets `amount` as the allowance of `spender` over the `owner` s tokens.\r\n     *\r\n     * This internal function is equivalent to `approve`, and can be used to\r\n     * e.g. set automatic allowances for certain subsystems, etc.\r\n     *\r\n     * Emits an {Approval} event.\r\n     *\r\n     * Requirements:\r\n     *\r\n     * - `owner` cannot be the zero address.\r\n     * - `spender` cannot be the zero address.\r\n     */\r\n    function _approve(\r\n        address owner,\r\n        address spender,\r\n        uint256 amount\r\n    ) internal virtual {\r\n        require(owner != address(0), \"ERC20: approve from the zero address\");\r\n        require(spender != address(0), \"ERC20: approve to the zero address\");\r\n\r\n        _allowances[owner][spender] = amount;\r\n        emit Approval(owner, spender, amount);\r\n    }\r\n\r\n    /**\r\n     * @dev Hook that is called before any transfer of tokens. This includes\r\n     * minting and burning.\r\n     *\r\n     * Calling conditions:\r\n     *\r\n     * - when `from` and `to` are both non-zero, `amount` of ``from``'s tokens\r\n     * will be transferred to `to`.\r\n     * - when `from` is zero, `amount` tokens will be minted for `to`.\r\n     * - when `to` is zero, `amount` of ``from``'s tokens will be burned.\r\n     * - `from` and `to` are never both zero.\r\n     *\r\n     * To learn more about hooks, head to xref:ROOT:extending-contracts.adoc#using-hooks[Using Hooks].\r\n     */\r\n    function _beforeTokenTransfer(\r\n        address from,\r\n        address to,\r\n        uint256 amount\r\n    ) internal virtual {}\r\n\r\n    /**\r\n     * @dev Hook that is called after any transfer of tokens. This includes\r\n     * minting and burning.\r\n     *\r\n     * Calling conditions:\r\n     *\r\n     * - when `from` and `to` are both non-zero, `amount` of ``from``'s tokens\r\n     * has been transferred to `to`.\r\n     * - when `from` is zero, `amount` tokens have been minted for `to`.\r\n     * - when `to` is zero, `amount` of ``from``'s tokens have been burned.\r\n     * - `from` and `to` are never both zero.\r\n     *\r\n     * To learn more about hooks, head to xref:ROOT:extending-contracts.adoc#using-hooks[Using Hooks].\r\n     */\r\n    function _afterTokenTransfer(\r\n        address from,\r\n        address to,\r\n        uint256 amount\r\n    ) internal virtual {}\r\n}\r\n\r\npragma solidity ^0.8.0;\r\n\r\n/**\r\n * @dev Standard math utilities missing in the Solidity language.\r\n */\r\nlibrary Math {\r\n    enum Rounding {\r\n        Down, // Toward negative infinity\r\n        Up, // Toward infinity\r\n        Zero // Toward zero\r\n    }\r\n\r\n    /**\r\n     * @dev Returns the largest of two numbers.\r\n     */\r\n    function max(uint256 a, uint256 b) internal pure returns (uint256) {\r\n        return a >= b ? a : b;\r\n    }\r\n\r\n    /**\r\n     * @dev Returns the smallest of two numbers.\r\n     */\r\n    function min(uint256 a, uint256 b) internal pure returns (uint256) {\r\n        return a < b ? a : b;\r\n    }\r\n\r\n    /**\r\n     * @dev Returns the average of two numbers. The result is rounded towards\r\n     * zero.\r\n     */\r\n    function average(uint256 a, uint256 b) internal pure returns (uint256) {\r\n        // (a + b) / 2 can overflow.\r\n        return (a & b) + (a ^ b) / 2;\r\n    }\r\n\r\n    /**\r\n     * @dev Returns the ceiling of the division of two numbers.\r\n     *\r\n     * This differs from standard division with `/` in that it rounds up instead\r\n     * of rounding down.\r\n     */\r\n    function ceilDiv(uint256 a, uint256 b) internal pure returns (uint256) {\r\n        // (a + b - 1) / b can overflow on addition, so we distribute.\r\n        return a == 0 ? 0 : (a - 1) / b + 1;\r\n    }\r\n\r\n    /**\r\n     * @notice Calculates floor(x * y / denominator) with full precision. Throws if result overflows a uint256 or denominator == 0\r\n     * @dev Original credit to Remco Bloemen under MIT license (https://xn--2-umb.com/21/muldiv)\r\n     * with further edits by Uniswap Labs also under MIT license.\r\n     */\r\n    function mulDiv(\r\n        uint256 x,\r\n        uint256 y,\r\n        uint256 denominator\r\n    ) internal pure returns (uint256 result) {\r\n        unchecked {\r\n            // 512-bit multiply [prod1 prod0] = x * y. Compute the product mod 2^256 and mod 2^256 - 1, then use\r\n            // use the Chinese Remainder Theorem to reconstruct the 512 bit result. The result is stored in two 256\r\n            // variables such that product = prod1 * 2^256 + prod0.\r\n            uint256 prod0; // Least significant 256 bits of the product\r\n            uint256 prod1; // Most significant 256 bits of the product\r\n            assembly {\r\n                let mm := mulmod(x, y, not(0))\r\n                prod0 := mul(x, y)\r\n                prod1 := sub(sub(mm, prod0), lt(mm, prod0))\r\n            }\r\n\r\n            // Handle non-overflow cases, 256 by 256 division.\r\n            if (prod1 == 0) {\r\n                return prod0 / denominator;\r\n            }\r\n\r\n            // Make sure the result is less than 2^256. Also prevents denominator == 0.\r\n            require(denominator > prod1);\r\n\r\n            ///////////////////////////////////////////////\r\n            // 512 by 256 division.\r\n            ///////////////////////////////////////////////\r\n\r\n            // Make division exact by subtracting the remainder from [prod1 prod0].\r\n            uint256 remainder;\r\n            assembly {\r\n                // Compute remainder using mulmod.\r\n                remainder := mulmod(x, y, denominator)\r\n\r\n                // Subtract 256 bit number from 512 bit number.\r\n                prod1 := sub(prod1, gt(remainder, prod0))\r\n                prod0 := sub(prod0, remainder)\r\n            }\r\n\r\n            // Factor powers of two out of denominator and compute largest power of two divisor of denominator. Always >= 1.\r\n            // See https://cs.stackexchange.com/q/138556/92363.\r\n\r\n            // Does not overflow because the denominator cannot be zero at this stage in the function.\r\n            uint256 twos = denominator & (~denominator + 1);\r\n            assembly {\r\n                // Divide denominator by twos.\r\n                denominator := div(denominator, twos)\r\n\r\n                // Divide [prod1 prod0] by twos.\r\n                prod0 := div(prod0, twos)\r\n\r\n                // Flip twos such that it is 2^256 / twos. If twos is zero, then it becomes one.\r\n                twos := add(div(sub(0, twos), twos), 1)\r\n            }\r\n\r\n            // Shift in bits from prod1 into prod0.\r\n            prod0 |= prod1 * twos;\r\n\r\n            // Invert denominator mod 2^256. Now that denominator is an odd number, it has an inverse modulo 2^256 such\r\n            // that denominator * inv = 1 mod 2^256. Compute the inverse by starting with a seed that is correct for\r\n            // four bits. That is, denominator * inv = 1 mod 2^4.\r\n            uint256 inverse = (3 * denominator) ^ 2;\r\n\r\n            // Use the Newton-Raphson iteration to improve the precision. Thanks to Hensel's lifting lemma, this also works\r\n            // in modular arithmetic, doubling the correct bits in each step.\r\n            inverse *= 2 - denominator * inverse; // inverse mod 2^8\r\n            inverse *= 2 - denominator * inverse; // inverse mod 2^16\r\n            inverse *= 2 - denominator * inverse; // inverse mod 2^32\r\n            inverse *= 2 - denominator * inverse; // inverse mod 2^64\r\n            inverse *= 2 - denominator * inverse; // inverse mod 2^128\r\n            inverse *= 2 - denominator * inverse; // inverse mod 2^256\r\n\r\n            // Because the division is now exact we can divide by multiplying with the modular inverse of denominator.\r\n            // This will give us the correct result modulo 2^256. Since the preconditions guarantee that the outcome is\r\n            // less than 2^256, this is the final result. We don't need to compute the high bits of the result and prod1\r\n            // is no longer required.\r\n            result = prod0 * inverse;\r\n            return result;\r\n        }\r\n    }\r\n\r\n    /**\r\n     * @notice Calculates x * y / denominator with full precision, following the selected rounding direction.\r\n     */\r\n    function mulDiv(\r\n        uint256 x,\r\n        uint256 y,\r\n        uint256 denominator,\r\n        Rounding rounding\r\n    ) internal pure returns (uint256) {\r\n        uint256 result = mulDiv(x, y, denominator);\r\n        if (rounding == Rounding.Up && mulmod(x, y, denominator) > 0) {\r\n            result += 1;\r\n        }\r\n        return result;\r\n    }\r\n\r\n    /**\r\n     * @dev Returns the square root of a number. If the number is not a perfect square, the value is rounded down.\r\n     *\r\n     * Inspired by Henry S. Warren, Jr.'s \"Hacker's Delight\" (Chapter 11).\r\n     */\r\n    function sqrt(uint256 a) internal pure returns (uint256) {\r\n        if (a == 0) {\r\n            return 0;\r\n        }\r\n\r\n        // For our first guess, we get the biggest power of 2 which is smaller than the square root of the target.\r\n        // We know that the \"msb\" (most significant bit) of our target number `a` is a power of 2 such that we have\r\n        // `msb(a) <= a < 2*msb(a)`.\r\n        // We also know that `k`, the position of the most significant bit, is such that `msb(a) = 2**k`.\r\n        // This gives `2**k < a <= 2**(k+1)`  `2**(k/2) <= sqrt(a) < 2 ** (k/2+1)`.\r\n        // Using an algorithm similar to the msb computation, we are able to compute `result = 2**(k/2)` which is a\r\n        // good first approximation of `sqrt(a)` with at least 1 correct bit.\r\n        uint256 result = 1;\r\n        uint256 x = a;\r\n        if (x >> 128 > 0) {\r\n            x >>= 128;\r\n            result <<= 64;\r\n        }\r\n        if (x >> 64 > 0) {\r\n            x >>= 64;\r\n            result <<= 32;\r\n        }\r\n        if (x >> 32 > 0) {\r\n            x >>= 32;\r\n            result <<= 16;\r\n        }\r\n        if (x >> 16 > 0) {\r\n            x >>= 16;\r\n            result <<= 8;\r\n        }\r\n        if (x >> 8 > 0) {\r\n            x >>= 8;\r\n            result <<= 4;\r\n        }\r\n        if (x >> 4 > 0) {\r\n            x >>= 4;\r\n            result <<= 2;\r\n        }\r\n        if (x >> 2 > 0) {\r\n            result <<= 1;\r\n        }\r\n\r\n        // At this point `result` is an estimation with one bit of precision. We know the true value is a uint128,\r\n        // since it is the square root of a uint256. Newton's method converges quadratically (precision doubles at\r\n        // every iteration). We thus need at most 7 iteration to turn our partial result with one bit of precision\r\n        // into the expected uint128 result.\r\n        unchecked {\r\n            result = (result + a / result) >> 1;\r\n            result = (result + a / result) >> 1;\r\n            result = (result + a / result) >> 1;\r\n            result = (result + a / result) >> 1;\r\n            result = (result + a / result) >> 1;\r\n            result = (result + a / result) >> 1;\r\n            result = (result + a / result) >> 1;\r\n            return min(result, a / result);\r\n        }\r\n    }\r\n\r\n    /**\r\n     * @notice Calculates sqrt(a), following the selected rounding direction.\r\n     */\r\n    function sqrt(uint256 a, Rounding rounding) internal pure returns (uint256) {\r\n        uint256 result = sqrt(a);\r\n        if (rounding == Rounding.Up && result * result < a) {\r\n            result += 1;\r\n        }\r\n        return result;\r\n    }\r\n}\r\n\r\npragma solidity ^0.8.0;\r\n\r\n/**\r\n * @dev Collection of functions related to array types.\r\n */\r\nlibrary Arrays {\r\n    /**\r\n     * @dev Searches a sorted `array` and returns the first index that contains\r\n     * a value greater or equal to `element`. If no such index exists (i.e. all\r\n     * values in the array are strictly less than `element`), the array length is\r\n     * returned. Time complexity O(log n).\r\n     *\r\n     * `array` is expected to be sorted in ascending order, and to contain no\r\n     * repeated elements.\r\n     */\r\n    function findUpperBound(uint256[] storage array, uint256 element) internal view returns (uint256) {\r\n        if (array.length == 0) {\r\n            return 0;\r\n        }\r\n\r\n        uint256 low = 0;\r\n        uint256 high = array.length;\r\n\r\n        while (low < high) {\r\n            uint256 mid = Math.average(low, high);\r\n\r\n            // Note that mid will always be strictly less than high (i.e. it will be a valid array index)\r\n            // because Math.average rounds down (it does integer division with truncation).\r\n            if (array[mid] > element) {\r\n                high = mid;\r\n            } else {\r\n                low = mid + 1;\r\n            }\r\n        }\r\n\r\n        // At this point `low` is the exclusive upper bound. We will return the inclusive upper bound.\r\n        if (low > 0 && array[low - 1] == element) {\r\n            return low - 1;\r\n        } else {\r\n            return low;\r\n        }\r\n    }\r\n}\r\n\r\npragma solidity ^0.8.0;\r\n\r\n/**\r\n * @title Counters\r\n * @author Matt Condon (@shrugs)\r\n * @dev Provides counters that can only be incremented, decremented or reset. This can be used e.g. to track the number\r\n * of elements in a mapping, issuing ERC721 ids, or counting request ids.\r\n *\r\n * Include with `using Counters for Counters.Counter;`\r\n */\r\nlibrary Counters {\r\n    struct Counter {\r\n        // This variable should never be directly accessed by users of the library: interactions must be restricted to\r\n        // the library's function. As of Solidity v0.5.2, this cannot be enforced, though there is a proposal to add\r\n        // this feature: see https://github.com/ethereum/solidity/issues/4637\r\n        uint256 _value; // default: 0\r\n    }\r\n\r\n    function current(Counter storage counter) internal view returns (uint256) {\r\n        return counter._value;\r\n    }\r\n\r\n    function increment(Counter storage counter) internal {\r\n        unchecked {\r\n            counter._value += 1;\r\n        }\r\n    }\r\n\r\n    function decrement(Counter storage counter) internal {\r\n        uint256 value = counter._value;\r\n        require(value > 0, \"Counter: decrement overflow\");\r\n        unchecked {\r\n            counter._value = value - 1;\r\n        }\r\n    }\r\n\r\n    function reset(Counter storage counter) internal {\r\n        counter._value = 0;\r\n    }\r\n}\r\n\r\npragma solidity ^0.8.0;\r\n\r\nabstract contract ERC20Snapshot is ERC20 {\r\n    // Inspired by Jordi Baylina's MiniMeToken to record historical balances:\r\n    // https://github.com/Giveth/minime/blob/ea04d950eea153a04c51fa510b068b9dded390cb/contracts/MiniMeToken.sol\r\n\r\n    using Arrays for uint256[];\r\n    using Counters for Counters.Counter;\r\n\r\n    // Snapshotted values have arrays of ids and the value corresponding to that id. These could be an array of a\r\n    // Snapshot struct, but that would impede usage of functions that work on an array.\r\n    struct Snapshots {\r\n        uint256[] ids;\r\n        uint256[] values;\r\n    }\r\n\r\n    mapping(address => Snapshots) private _accountBalanceSnapshots;\r\n    Snapshots private _totalSupplySnapshots;\r\n\r\n    // Snapshot ids increase monotonically, with the first value being 1. An id of 0 is invalid.\r\n    Counters.Counter private _currentSnapshotId;\r\n\r\n    /**\r\n     * @dev Emitted by {_snapshot} when a snapshot identified by `id` is created.\r\n     */\r\n    event Snapshot(uint256 id);\r\n\r\n    /**\r\n     * @dev Creates a new snapshot and returns its snapshot id.\r\n     *\r\n     * Emits a {Snapshot} event that contains the same id.\r\n     *\r\n     * {_snapshot} is `internal` and you have to decide how to expose it externally. Its usage may be restricted to a\r\n     * set of accounts, for example using {AccessControl}, or it may be open to the public.\r\n     *\r\n     * [WARNING]\r\n     * ====\r\n     * While an open way of calling {_snapshot} is required for certain trust minimization mechanisms such as forking,\r\n     * you must consider that it can potentially be used by attackers in two ways.\r\n     *\r\n     * First, it can be used to increase the cost of retrieval of values from snapshots, although it will grow\r\n     * logarithmically thus rendering this attack ineffective in the long term. Second, it can be used to target\r\n     * specific accounts and increase the cost of ERC20 transfers for them, in the ways specified in the Gas Costs\r\n     * section above.\r\n     *\r\n     * We haven't measured the actual numbers; if this is something you're interested in please reach out to us.\r\n     * ====\r\n     */\r\n    function _snapshot() internal virtual returns (uint256) {\r\n        _currentSnapshotId.increment();\r\n\r\n        uint256 currentId = _getCurrentSnapshotId();\r\n        emit Snapshot(currentId);\r\n        return currentId;\r\n    }\r\n\r\n    /**\r\n     * @dev Get the current snapshotId\r\n     */\r\n    function _getCurrentSnapshotId() internal view virtual returns (uint256) {\r\n        return _currentSnapshotId.current();\r\n    }\r\n\r\n    /**\r\n     * @dev Retrieves the balance of `account` at the time `snapshotId` was created.\r\n     */\r\n    function balanceOfAt(address account, uint256 snapshotId) public view virtual returns (uint256) {\r\n        (bool snapshotted, uint256 value) = _valueAt(snapshotId, _accountBalanceSnapshots[account]);\r\n\r\n        return snapshotted ? value : balanceOf(account);\r\n    }\r\n\r\n    /**\r\n     * @dev Retrieves the total supply at the time `snapshotId` was created.\r\n     */\r\n    function totalSupplyAt(uint256 snapshotId) public view virtual returns (uint256) {\r\n        (bool snapshotted, uint256 value) = _valueAt(snapshotId, _totalSupplySnapshots);\r\n\r\n        return snapshotted ? value : totalSupply();\r\n    }\r\n\r\n    // Update balance and/or total supply snapshots before the values are modified. This is implemented\r\n    // in the _beforeTokenTransfer hook, which is executed for _mint, _burn, and _transfer operations.\r\n    function _beforeTokenTransfer(\r\n        address from,\r\n        address to,\r\n        uint256 amount\r\n    ) internal virtual override {\r\n        super._beforeTokenTransfer(from, to, amount);\r\n\r\n        if (from == address(0)) {\r\n            // mint\r\n            _updateAccountSnapshot(to);\r\n            _updateTotalSupplySnapshot();\r\n        } else if (to == address(0)) {\r\n            // burn\r\n            _updateAccountSnapshot(from);\r\n            _updateTotalSupplySnapshot();\r\n        } else {\r\n            // transfer\r\n            _updateAccountSnapshot(from);\r\n            _updateAccountSnapshot(to);\r\n        }\r\n    }\r\n\r\n    function _valueAt(uint256 snapshotId, Snapshots storage snapshots) private view returns (bool, uint256) {\r\n        require(snapshotId > 0, \"ERC20Snapshot: id is 0\");\r\n        require(snapshotId <= _getCurrentSnapshotId(), \"ERC20Snapshot: nonexistent id\");\r\n\r\n        // When a valid snapshot is queried, there are three possibilities:\r\n        //  a) The queried value was not modified after the snapshot was taken. Therefore, a snapshot entry was never\r\n        //  created for this id, and all stored snapshot ids are smaller than the requested one. The value that corresponds\r\n        //  to this id is the current one.\r\n        //  b) The queried value was modified after the snapshot was taken. Therefore, there will be an entry with the\r\n        //  requested id, and its value is the one to return.\r\n        //  c) More snapshots were created after the requested one, and the queried value was later modified. There will be\r\n        //  no entry for the requested id: the value that corresponds to it is that of the smallest snapshot id that is\r\n        //  larger than the requested one.\r\n        //\r\n        // In summary, we need to find an element in an array, returning the index of the smallest value that is larger if\r\n        // it is not found, unless said value doesn't exist (e.g. when all values are smaller). Arrays.findUpperBound does\r\n        // exactly this.\r\n\r\n        uint256 index = snapshots.ids.findUpperBound(snapshotId);\r\n\r\n        if (index == snapshots.ids.length) {\r\n            return (false, 0);\r\n        } else {\r\n            return (true, snapshots.values[index]);\r\n        }\r\n    }\r\n\r\n    function _updateAccountSnapshot(address account) private {\r\n        _updateSnapshot(_accountBalanceSnapshots[account], balanceOf(account));\r\n    }\r\n\r\n    function _updateTotalSupplySnapshot() private {\r\n        _updateSnapshot(_totalSupplySnapshots, totalSupply());\r\n    }\r\n\r\n    function _updateSnapshot(Snapshots storage snapshots, uint256 currentValue) private {\r\n        uint256 currentId = _getCurrentSnapshotId();\r\n        if (_lastSnapshotId(snapshots.ids) < currentId) {\r\n            snapshots.ids.push(currentId);\r\n            snapshots.values.push(currentValue);\r\n        }\r\n    }\r\n\r\n    function _lastSnapshotId(uint256[] storage ids) private view returns (uint256) {\r\n        if (ids.length == 0) {\r\n            return 0;\r\n        } else {\r\n            return ids[ids.length - 1];\r\n        }\r\n    }\r\n}\r\n\r\npragma solidity ^0.8.0;\r\n\r\ninterface IUpOnly_v2 is IERC20 {\r\n    function burn(uint256 _burnAmount) external;\r\n\r\n    function snapshot() external;\r\n\r\n    function getSnapshotId() external view;\r\n}\r\n\r\npragma solidity ^0.8.0;\r\n\r\ncontract upOnly_v2 is Ownable, ERC20Snapshot, IUpOnly_v2 {\r\n\r\n    constructor() ERC20(\"Anon\", \"AN\") {\r\n        _mint(msg.sender, 100000 * 10 ** 18);\r\n    }\r\n\r\n    //token burn     \r\n    function burn(uint256 _burnAmount) public override {        \r\n        _burn(msg.sender, _burnAmount);     \r\n    }  \r\n\r\n    //take snapshot\r\n    function snapshot() external onlyOwner override {\r\n        ERC20Snapshot._snapshot();\r\n    }\r\n\r\n    //get snapshot id\r\n    function getSnapshotId() public view override {\r\n        ERC20Snapshot._getCurrentSnapshotId();\r\n    }\r\n\r\n}",
  "sourcePath": "/mnt/c/Users/canma/Desktop/Code/DappU DEX/dex/src/contracts/Token.sol",
  "compiler": {
    "name": "solc",
    "version": "0.8.14+commit.80d49f37.Emscripten.clang"
  },
  "schemaVersion": "3.4.7",
  "updatedAt": "2022-09-30T05:41:00.924Z",
  "devdoc": {
    "kind": "dev",
    "methods": {
      "allowance(address,address)": {
        "details": "See {IERC20-allowance}."
      },
      "approve(address,uint256)": {
        "details": "See {IERC20-approve}. Requirements: - `spender` cannot be the zero address."
      },
      "balanceOf(address)": {
        "details": "See {IERC20-balanceOf}."
      },
      "balanceOfAt(address,uint256)": {
        "details": "Retrieves the balance of `account` at the time `snapshotId` was created."
      },
      "decimals()": {
        "details": "Returns the number of decimals used to get its user representation. For example, if `decimals` equals `2`, a balance of `505` tokens should be displayed to a user as `5.05` (`505 / 10 ** 2`). Tokens usually opt for a value of 18, imitating the relationship between Ether and Wei. This is the value {ERC20} uses, unless this function is overridden; NOTE: This information is only used for _display_ purposes: it in no way affects any of the arithmetic of the contract, including {IERC20-balanceOf} and {IERC20-transfer}."
      },
      "decreaseAllowance(address,uint256)": {
        "details": "Atomically decreases the allowance granted to `spender` by the caller. This is an alternative to {approve} that can be used as a mitigation for problems described in {IERC20-approve}. Emits an {Approval} event indicating the updated allowance. Requirements: - `spender` cannot be the zero address. - `spender` must have allowance for the caller of at least `subtractedValue`."
      },
      "increaseAllowance(address,uint256)": {
        "details": "Atomically increases the allowance granted to `spender` by the caller. This is an alternative to {approve} that can be used as a mitigation for problems described in {IERC20-approve}. Emits an {Approval} event indicating the updated allowance. Requirements: - `spender` cannot be the zero address."
      },
      "name()": {
        "details": "Returns the name of the token."
      },
      "owner()": {
        "details": "Returns the address of the current owner."
      },
      "renounceOwnership()": {
        "details": "Leaves the contract without owner. It will not be possible to call `onlyOwner` functions anymore. Can only be called by the current owner. NOTE: Renouncing ownership will leave the contract without an owner, thereby removing any functionality that is only available to the owner."
      },
      "symbol()": {
        "details": "Returns the symbol of the token, usually a shorter version of the name."
      },
      "totalSupply()": {
        "details": "See {IERC20-totalSupply}."
      },
      "totalSupplyAt(uint256)": {
        "details": "Retrieves the total supply at the time `snapshotId` was created."
      },
      "transfer(address,uint256)": {
        "details": "See {IERC20-transfer}. Requirements: - `recipient` cannot be the zero address. - the caller must have a balance of at least `amount`."
      },
      "transferFrom(address,address,uint256)": {
        "details": "See {IERC20-transferFrom}. Emits an {Approval} event indicating the updated allowance. This is not required by the EIP. See the note at the beginning of {ERC20}. Requirements: - `sender` and `recipient` cannot be the zero address. - `sender` must have a balance of at least `amount`. - the caller must have allowance for ``sender``'s tokens of at least `amount`."
      },
      "transferOwnership(address)": {
        "details": "Transfers ownership of the contract to a new account (`newOwner`). Can only be called by the current owner."
      }
    },
    "version": 1
  },
  "userdoc": {
    "kind": "user",
    "methods": {},
    "version": 1
  }
}