{
  "contractName": "upOnly_v2",
  "abi": [
    {
      "inputs": [],
      "stateMutability": "nonpayable",
      "type": "constructor"
    },
    {
      "anonymous": false,
      "inputs": [
        {
          "indexed": true,
          "internalType": "address",
          "name": "owner",
          "type": "address"
        },
        {
          "indexed": true,
          "internalType": "address",
          "name": "spender",
          "type": "address"
        },
        {
          "indexed": false,
          "internalType": "uint256",
          "name": "value",
          "type": "uint256"
        }
      ],
      "name": "Approval",
      "type": "event"
    },
    {
      "anonymous": false,
      "inputs": [
        {
          "indexed": true,
          "internalType": "address",
          "name": "previousOwner",
          "type": "address"
        },
        {
          "indexed": true,
          "internalType": "address",
          "name": "newOwner",
          "type": "address"
        }
      ],
      "name": "OwnershipTransferred",
      "type": "event"
    },
    {
      "anonymous": false,
      "inputs": [
        {
          "indexed": false,
          "internalType": "uint256",
          "name": "id",
          "type": "uint256"
        }
      ],
      "name": "Snapshot",
      "type": "event"
    },
    {
      "anonymous": false,
      "inputs": [
        {
          "indexed": true,
          "internalType": "address",
          "name": "from",
          "type": "address"
        },
        {
          "indexed": true,
          "internalType": "address",
          "name": "to",
          "type": "address"
        },
        {
          "indexed": false,
          "internalType": "uint256",
          "name": "value",
          "type": "uint256"
        }
      ],
      "name": "Transfer",
      "type": "event"
    },
    {
      "inputs": [
        {
          "internalType": "address",
          "name": "owner",
          "type": "address"
        },
        {
          "internalType": "address",
          "name": "spender",
          "type": "address"
        }
      ],
      "name": "allowance",
      "outputs": [
        {
          "internalType": "uint256",
          "name": "",
          "type": "uint256"
        }
      ],
      "stateMutability": "view",
      "type": "function"
    },
    {
      "inputs": [
        {
          "internalType": "address",
          "name": "spender",
          "type": "address"
        },
        {
          "internalType": "uint256",
          "name": "amount",
          "type": "uint256"
        }
      ],
      "name": "approve",
      "outputs": [
        {
          "internalType": "bool",
          "name": "",
          "type": "bool"
        }
      ],
      "stateMutability": "nonpayable",
      "type": "function"
    },
    {
      "inputs": [
        {
          "internalType": "address",
          "name": "account",
          "type": "address"
        }
      ],
      "name": "balanceOf",
      "outputs": [
        {
          "internalType": "uint256",
          "name": "",
          "type": "uint256"
        }
      ],
      "stateMutability": "view",
      "type": "function"
    },
    {
      "inputs": [
        {
          "internalType": "address",
          "name": "account",
          "type": "address"
        },
        {
          "internalType": "uint256",
          "name": "snapshotId",
          "type": "uint256"
        }
      ],
      "name": "balanceOfAt",
      "outputs": [
        {
          "internalType": "uint256",
          "name": "",
          "type": "uint256"
        }
      ],
      "stateMutability": "view",
      "type": "function"
    },
    {
      "inputs": [],
      "name": "decimals",
      "outputs": [
        {
          "internalType": "uint8",
          "name": "",
          "type": "uint8"
        }
      ],
      "stateMutability": "view",
      "type": "function"
    },
    {
      "inputs": [
        {
          "internalType": "address",
          "name": "spender",
          "type": "address"
        },
        {
          "internalType": "uint256",
          "name": "subtractedValue",
          "type": "uint256"
        }
      ],
      "name": "decreaseAllowance",
      "outputs": [
        {
          "internalType": "bool",
          "name": "",
          "type": "bool"
        }
      ],
      "stateMutability": "nonpayable",
      "type": "function"
    },
    {
      "inputs": [
        {
          "internalType": "address",
          "name": "spender",
          "type": "address"
        },
        {
          "internalType": "uint256",
          "name": "addedValue",
          "type": "uint256"
        }
      ],
      "name": "increaseAllowance",
      "outputs": [
        {
          "internalType": "bool",
          "name": "",
          "type": "bool"
        }
      ],
      "stateMutability": "nonpayable",
      "type": "function"
    },
    {
      "inputs": [],
      "name": "name",
      "outputs": [
        {
          "internalType": "string",
          "name": "",
          "type": "string"
        }
      ],
      "stateMutability": "view",
      "type": "function"
    },
    {
      "inputs": [],
      "name": "owner",
      "outputs": [
        {
          "internalType": "address",
          "name": "",
          "type": "address"
        }
      ],
      "stateMutability": "view",
      "type": "function"
    },
    {
      "inputs": [],
      "name": "renounceOwnership",
      "outputs": [],
      "stateMutability": "nonpayable",
      "type": "function"
    },
    {
      "inputs": [],
      "name": "symbol",
      "outputs": [
        {
          "internalType": "string",
          "name": "",
          "type": "string"
        }
      ],
      "stateMutability": "view",
      "type": "function"
    },
    {
      "inputs": [],
      "name": "totalSupply",
      "outputs": [
        {
          "internalType": "uint256",
          "name": "",
          "type": "uint256"
        }
      ],
      "stateMutability": "view",
      "type": "function"
    },
    {
      "inputs": [
        {
          "internalType": "uint256",
          "name": "snapshotId",
          "type": "uint256"
        }
      ],
      "name": "totalSupplyAt",
      "outputs": [
        {
          "internalType": "uint256",
          "name": "",
          "type": "uint256"
        }
      ],
      "stateMutability": "view",
      "type": "function"
    },
    {
      "inputs": [
        {
          "internalType": "address",
          "name": "recipient",
          "type": "address"
        },
        {
          "internalType": "uint256",
          "name": "amount",
          "type": "uint256"
        }
      ],
      "name": "transfer",
      "outputs": [
        {
          "internalType": "bool",
          "name": "",
          "type": "bool"
        }
      ],
      "stateMutability": "nonpayable",
      "type": "function"
    },
    {
      "inputs": [
        {
          "internalType": "address",
          "name": "sender",
          "type": "address"
        },
        {
          "internalType": "address",
          "name": "recipient",
          "type": "address"
        },
        {
          "internalType": "uint256",
          "name": "amount",
          "type": "uint256"
        }
      ],
      "name": "transferFrom",
      "outputs": [
        {
          "internalType": "bool",
          "name": "",
          "type": "bool"
        }
      ],
      "stateMutability": "nonpayable",
      "type": "function"
    },
    {
      "inputs": [
        {
          "internalType": "address",
          "name": "newOwner",
          "type": "address"
        }
      ],
      "name": "transferOwnership",
      "outputs": [],
      "stateMutability": "nonpayable",
      "type": "function"
    },
    {
      "inputs": [
        {
          "internalType": "uint256",
          "name": "_burnAmount",
          "type": "uint256"
        }
      ],
      "name": "burn",
      "outputs": [],
      "stateMutability": "nonpayable",
      "type": "function"
    },
    {
      "inputs": [],
      "name": "snapshot",
      "outputs": [],
      "stateMutability": "nonpayable",
      "type": "function"
    },
    {
      "inputs": [],
      "name": "getSnapshotId",
      "outputs": [],
      "stateMutability": "view",
      "type": "function"
    }
  ],
  "bytecode": "0x60806040523480156200001157600080fd5b506040518060400160405280600481526020016320b737b760e11b8152506040518060400160405280600281526020016120a760f11b815250620000646200005e620000b460201b60201c565b620000b8565b81516200007990600590602085019062000371565b5080516200008f90600690602084019062000371565b505050620000ae3369152d02c7e14af68000006200010860201b60201c565b620004b4565b3390565b600080546001600160a01b038381166001600160a01b0319831681178455604051919092169283917f8be0079c531659141344cd1fd0a4f28419497f9722a3daafe3b4186f6b6457e09190a35050565b6001600160a01b038216620001635760405162461bcd60e51b815260206004820152601f60248201527f45524332303a206d696e7420746f20746865207a65726f206164647265737300604482015260640160405180910390fd5b6200017160008383620001fe565b80600460008282546200018591906200042d565b90915550506001600160a01b03821660009081526001602052604081208054839290620001b49084906200042d565b90915550506040518181526001600160a01b038316906000907fddf252ad1be2c89b69c2b068fc378daa952ba7f163c4a11628f55a4df523b3ef9060200160405180910390a35050565b620002168383836200023a60201b6200063b1760201c565b6001600160a01b0383166200023f5762000230826200026a565b6200023a620002a3565b505050565b6001600160a01b038216620002595762000230836200026a565b62000264836200026a565b6200023a825b6001600160a01b0381166000908152600760209081526040808320600190925290912054620002a09190620002b5565b620002b5565b50565b620002b360086200029a60045490565b565b6000620002c162000304565b905080620002cf8462000322565b10156200023a578254600180820185556000858152602080822090930193909355938401805494850181558252902090910155565b60006200031d600a6200036d60201b620006401760201c565b905090565b805460009081036200033657506000919050565b81548290620003489060019062000448565b815481106200035b576200035b62000462565b90600052602060002001549050919050565b5490565b8280546200037f9062000478565b90600052602060002090601f016020900481019282620003a35760008555620003ee565b82601f10620003be57805160ff1916838001178555620003ee565b82800160010185558215620003ee579182015b82811115620003ee578251825591602001919060010190620003d1565b50620003fc92915062000400565b5090565b5b80821115620003fc576000815560010162000401565b634e487b7160e01b600052601160045260246000fd5b6000821982111562000443576200044362000417565b500190565b6000828210156200045d576200045d62000417565b500390565b634e487b7160e01b600052603260045260246000fd5b600181811c908216806200048d57607f821691505b602082108103620004ae57634e487b7160e01b600052602260045260246000fd5b50919050565b61113680620004c46000396000f3fe608060405234801561001057600080fd5b50600436106101215760003560e01c806370a08231116100ad578063981b24d011610071578063981b24d01461023a578063a457c2d71461024d578063a9059cbb14610260578063dd62ed3e14610273578063f2fde38b146102ac57600080fd5b806370a08231146101de578063715018a6146102075780638da5cb5b1461020f57806395d89b411461022a5780639711715a1461023257600080fd5b8063313ce567116100f4578063313ce5671461018c578063395093511461019b57806342966c68146101ae5780634ee2cd7e146101c357806368b2c387146101d657600080fd5b806306fdde0314610126578063095ea7b31461014457806318160ddd1461016757806323b872dd14610179575b600080fd5b61012e6102bf565b60405161013b9190610f10565b60405180910390f35b610157610152366004610f7c565b610351565b604051901515815260200161013b565b6004545b60405190815260200161013b565b610157610187366004610fa6565b610368565b6040516012815260200161013b565b6101576101a9366004610f7c565b610417565b6101c16101bc366004610fe2565b610453565b005b61016b6101d1366004610f7c565b610460565b6101c16104b9565b61016b6101ec366004610ffb565b6001600160a01b031660009081526001602052604090205490565b6101c16104c1565b6000546040516001600160a01b03909116815260200161013b565b61012e6104d5565b6101c16104e4565b61016b610248366004610fe2565b6104f4565b61015761025b366004610f7c565b61051f565b61015761026e366004610f7c565b6105b8565b61016b610281366004611016565b6001600160a01b03918216600090815260026020908152604080832093909416825291909152205490565b6101c16102ba366004610ffb565b6105c5565b6060600580546102ce90611049565b80601f01602080910402602001604051908101604052809291908181526020018280546102fa90611049565b80156103475780601f1061031c57610100808354040283529160200191610347565b820191906000526020600020905b81548152906001019060200180831161032a57829003601f168201915b5050505050905090565b600061035e338484610644565b5060015b92915050565b6000610375848484610768565b6001600160a01b0384166000908152600260209081526040808320338452909152902054828110156103ff5760405162461bcd60e51b815260206004820152602860248201527f45524332303a207472616e7366657220616d6f756e74206578636565647320616044820152676c6c6f77616e636560c01b60648201526084015b60405180910390fd5b61040c8533858403610644565b506001949350505050565b3360008181526002602090815260408083206001600160a01b0387168452909152812054909161035e91859061044e908690611099565b610644565b61045d33826109a8565b50565b6001600160a01b038216600090815260076020526040812081908190610487908590610b02565b91509150816104ae576001600160a01b0385166000908152600160205260409020546104b0565b805b95945050505050565b61045d610bf8565b6104c9610c08565b6104d36000610c62565b565b6060600680546102ce90611049565b6104ec610c08565b61045d610cb2565b6000806000610504846008610b02565b915091508161051557600454610517565b805b949350505050565b3360009081526002602090815260408083206001600160a01b0386168452909152812054828110156105a15760405162461bcd60e51b815260206004820152602560248201527f45524332303a2064656372656173656420616c6c6f77616e63652062656c6f77604482015264207a65726f60d81b60648201526084016103f6565b6105ae3385858403610644565b5060019392505050565b600061035e338484610768565b6105cd610c08565b6001600160a01b0381166106325760405162461bcd60e51b815260206004820152602660248201527f4f776e61626c653a206e6577206f776e657220697320746865207a65726f206160448201526564647265737360d01b60648201526084016103f6565b61045d81610c62565b505050565b5490565b6001600160a01b0383166106a65760405162461bcd60e51b8152602060048201526024808201527f45524332303a20617070726f76652066726f6d20746865207a65726f206164646044820152637265737360e01b60648201526084016103f6565b6001600160a01b0382166107075760405162461bcd60e51b815260206004820152602260248201527f45524332303a20617070726f766520746f20746865207a65726f206164647265604482015261737360f01b60648201526084016103f6565b6001600160a01b0383811660008181526002602090815260408083209487168084529482529182902085905590518481527f8c5be1e5ebec7d5bd14f71427d1e84f3dd0314c0f7b2291e5b200ac8c7c3b925910160405180910390a3505050565b6001600160a01b0383166107cc5760405162461bcd60e51b815260206004820152602560248201527f45524332303a207472616e736665722066726f6d20746865207a65726f206164604482015264647265737360d81b60648201526084016103f6565b6001600160a01b03821661082e5760405162461bcd60e51b815260206004820152602360248201527f45524332303a207472616e7366657220746f20746865207a65726f206164647260448201526265737360e81b60648201526084016103f6565b610839838383610d0c565b6001600160a01b038316600090815260016020526040902054818110156108b15760405162461bcd60e51b815260206004820152602660248201527f45524332303a207472616e7366657220616d6f756e7420657863656564732062604482015265616c616e636560d01b60648201526084016103f6565b6001600160a01b038085166000908152600160205260408082208585039055918516815290812080548492906108e8908490611099565b92505081905550826001600160a01b0316846001600160a01b03167fddf252ad1be2c89b69c2b068fc378daa952ba7f163c4a11628f55a4df523b3ef8460405161093491815260200190565b60405180910390a35050600360205250507fa15bc60c955c405d20d9149c709e2460f1c2d9a497496a7f46004d1772c3054c80546001810182556000919091527f2c644dcf44e265ba93879b2da89e1b16ab48fc5eb8e31bc16b0612d6da8463f10180546001600160a01b03191633179055565b6001600160a01b038216610a085760405162461bcd60e51b815260206004820152602160248201527f45524332303a206275726e2066726f6d20746865207a65726f206164647265736044820152607360f81b60648201526084016103f6565b610a1482600083610d0c565b6001600160a01b03821660009081526001602052604090205481811015610a885760405162461bcd60e51b815260206004820152602260248201527f45524332303a206275726e20616d6f756e7420657863656564732062616c616e604482015261636560f01b60648201526084016103f6565b6001600160a01b0383166000908152600160205260408120838303905560048054849290610ab79084906110b1565b90915550506040518281526000906001600160a01b038516907fddf252ad1be2c89b69c2b068fc378daa952ba7f163c4a11628f55a4df523b3ef9060200160405180910390a3505050565b60008060008411610b4e5760405162461bcd60e51b815260206004820152601660248201527504552433230536e617073686f743a20696420697320360541b60448201526064016103f6565b610b56610bf8565b841115610ba55760405162461bcd60e51b815260206004820152601d60248201527f4552433230536e617073686f743a206e6f6e6578697374656e7420696400000060448201526064016103f6565b6000610bb18486610d54565b84549091508103610bc9576000809250925050610bf1565b6001846001018281548110610be057610be06110c8565b906000526020600020015492509250505b9250929050565b6000610c03600a5490565b905090565b6000546001600160a01b031633146104d35760405162461bcd60e51b815260206004820181905260248201527f4f776e61626c653a2063616c6c6572206973206e6f7420746865206f776e657260448201526064016103f6565b600080546001600160a01b038381166001600160a01b0319831681178455604051919092169283917f8be0079c531659141344cd1fd0a4f28419497f9722a3daafe3b4186f6b6457e09190a35050565b6000610cc2600a80546001019055565b6000610ccc610bf8565b90507f8030e83b04d87bef53480e26263266d6ca66863aa8506aca6f2559d18aa1cb6781604051610cff91815260200190565b60405180910390a1919050565b6001600160a01b038316610d2b57610d2382610e19565b61063b610e4c565b6001600160a01b038216610d4257610d2383610e19565b610d4b83610e19565b61063b82610e19565b81546000908103610d6757506000610362565b82546000905b80821015610dc3576000610d818383610e5a565b905084868281548110610d9657610d966110c8565b90600052602060002001541115610daf57809150610dbd565b610dba816001611099565b92505b50610d6d565b600082118015610df857508385610ddb6001856110b1565b81548110610deb57610deb6110c8565b9060005260206000200154145b15610e1157610e086001836110b1565b92505050610362565b509050610362565b6001600160a01b038116600090815260076020908152604080832060019092529091205461045d9190610e7c565b610e7c565b6104d36008610e4760045490565b6000610e6960028484186110de565b610e7590848416611099565b9392505050565b6000610e86610bf8565b905080610e9284610ec6565b101561063b578254600180820185556000858152602080822090930193909355938401805494850181558252902090910155565b80546000908103610ed957506000919050565b81548290610ee9906001906110b1565b81548110610ef957610ef96110c8565b90600052602060002001549050919050565b919050565b600060208083528351808285015260005b81811015610f3d57858101830151858201604001528201610f21565b81811115610f4f576000604083870101525b50601f01601f1916929092016040019392505050565b80356001600160a01b0381168114610f0b57600080fd5b60008060408385031215610f8f57600080fd5b610f9883610f65565b946020939093013593505050565b600080600060608486031215610fbb57600080fd5b610fc484610f65565b9250610fd260208501610f65565b9150604084013590509250925092565b600060208284031215610ff457600080fd5b5035919050565b60006020828403121561100d57600080fd5b610e7582610f65565b6000806040838503121561102957600080fd5b61103283610f65565b915061104060208401610f65565b90509250929050565b600181811c9082168061105d57607f821691505b60208210810361107d57634e487b7160e01b600052602260045260246000fd5b50919050565b634e487b7160e01b600052601160045260246000fd5b600082198211156110ac576110ac611083565b500190565b6000828210156110c3576110c3611083565b500390565b634e487b7160e01b600052603260045260246000fd5b6000826110fb57634e487b7160e01b600052601260045260246000fd5b50049056fea26469706673582212205406dd1ecfe3861b863eaa8cc79ee01f73b92f79d6241f51ec30a412e0a74b7964736f6c634300080e0033",
  "immutableReferences": {},
  "source": "// SPDX-License-Identifier: MIT\r\n\r\npragma solidity ^0.8.0;\r\n\r\n/**\r\n * @dev Provides information about the current execution context, including the\r\n * sender of the transaction and its data. While these are generally available\r\n * via msg.sender and msg.data, they should not be accessed in such a direct\r\n * manner, since when dealing with meta-transactions the account sending and\r\n * paying for execution may not be the actual sender (as far as an application\r\n * is concerned).\r\n *\r\n * This contract is only required for intermediate, library-like contracts.\r\n */\r\nabstract contract Context {\r\n    function _msgSender() internal view virtual returns (address) {\r\n        return msg.sender;\r\n    }\r\n\r\n    function _msgData() internal view virtual returns (bytes calldata) {\r\n        return msg.data;\r\n    }\r\n}\r\n\r\npragma solidity ^0.8.0;\r\n\r\n/**\r\n * @dev Contract module which provides a basic access control mechanism, where\r\n * there is an account (an owner) that can be granted exclusive access to\r\n * specific functions.\r\n *\r\n * By default, the owner account will be the one that deploys the contract. This\r\n * can later be changed with {transferOwnership}.\r\n *\r\n * This module is used through inheritance. It will make available the modifier\r\n * `onlyOwner`, which can be applied to your functions to restrict their use to\r\n * the owner.\r\n */\r\nabstract contract Ownable is Context {\r\n    address private _owner;\r\n\r\n    event OwnershipTransferred(address indexed previousOwner, address indexed newOwner);\r\n\r\n    /**\r\n     * @dev Initializes the contract setting the deployer as the initial owner.\r\n     */\r\n    constructor() {\r\n        _transferOwnership(_msgSender());\r\n    }\r\n\r\n    /**\r\n     * @dev Throws if called by any account other than the owner.\r\n     */\r\n    modifier onlyOwner() {\r\n        _checkOwner();\r\n        _;\r\n    }\r\n\r\n    /**\r\n     * @dev Returns the address of the current owner.\r\n     */\r\n    function owner() public view virtual returns (address) {\r\n        return _owner;\r\n    }\r\n\r\n    /**\r\n     * @dev Throws if the sender is not the owner.\r\n     */\r\n    function _checkOwner() internal view virtual {\r\n        require(owner() == _msgSender(), \"Ownable: caller is not the owner\");\r\n    }\r\n\r\n    /**\r\n     * @dev Leaves the contract without owner. It will not be possible to call\r\n     * `onlyOwner` functions anymore. Can only be called by the current owner.\r\n     *\r\n     * NOTE: Renouncing ownership will leave the contract without an owner,\r\n     * thereby removing any functionality that is only available to the owner.\r\n     */\r\n    function renounceOwnership() public virtual onlyOwner {\r\n        _transferOwnership(address(0));\r\n    }\r\n\r\n    /**\r\n     * @dev Transfers ownership of the contract to a new account (`newOwner`).\r\n     * Can only be called by the current owner.\r\n     */\r\n    function transferOwnership(address newOwner) public virtual onlyOwner {\r\n        require(newOwner != address(0), \"Ownable: new owner is the zero address\");\r\n        _transferOwnership(newOwner);\r\n    }\r\n\r\n    /**\r\n     * @dev Transfers ownership of the contract to a new account (`newOwner`).\r\n     * Internal function without access restriction.\r\n     */\r\n    function _transferOwnership(address newOwner) internal virtual {\r\n        address oldOwner = _owner;\r\n        _owner = newOwner;\r\n        emit OwnershipTransferred(oldOwner, newOwner);\r\n    }\r\n}\r\n\r\npragma solidity ^0.8.0;\r\n\r\n/**\r\n * @dev Interface of the ERC20 standard as defined in the EIP.\r\n */\r\ninterface IERC20 {\r\n    /**\r\n     * @dev Returns the amount of tokens in existence.\r\n     */\r\n    function totalSupply() external view returns (uint256);\r\n\r\n    /**\r\n     * @dev Returns the amount of tokens owned by `account`.\r\n     */\r\n    function balanceOf(address account) external view returns (uint256);\r\n\r\n    /**\r\n     * @dev Moves `amount` tokens from the caller's account to `recipient`.\r\n     *\r\n     * Returns a boolean value indicating whether the operation succeeded.\r\n     *\r\n     * Emits a {Transfer} event.\r\n     */\r\n    function transfer(address recipient, uint256 amount) external returns (bool);\r\n\r\n    /**\r\n     * @dev Returns the remaining number of tokens that `spender` will be\r\n     * allowed to spend on behalf of `owner` through {transferFrom}. This is\r\n     * zero by default.\r\n     *\r\n     * This value changes when {approve} or {transferFrom} are called.\r\n     */\r\n    function allowance(address owner, address spender) external view returns (uint256);\r\n\r\n    /**\r\n     * @dev Sets `amount` as the allowance of `spender` over the caller's tokens.\r\n     *\r\n     * Returns a boolean value indicating whether the operation succeeded.\r\n     *\r\n     * IMPORTANT: Beware that changing an allowance with this method brings the risk\r\n     * that someone may use both the old and the new allowance by unfortunate\r\n     * transaction ordering. One possible solution to mitigate this race\r\n     * condition is to first reduce the spender's allowance to 0 and set the\r\n     * desired value afterwards:\r\n     * https://github.com/ethereum/EIPs/issues/20#issuecomment-263524729\r\n     *\r\n     * Emits an {Approval} event.\r\n     */\r\n    function approve(address spender, uint256 amount) external returns (bool);\r\n\r\n    /**\r\n     * @dev Moves `amount` tokens from `sender` to `recipient` using the\r\n     * allowance mechanism. `amount` is then deducted from the caller's\r\n     * allowance.\r\n     *\r\n     * Returns a boolean value indicating whether the operation succeeded.\r\n     *\r\n     * Emits a {Transfer} event.\r\n     */\r\n    function transferFrom(\r\n        address sender,\r\n        address recipient,\r\n        uint256 amount\r\n    ) external returns (bool);\r\n\r\n    /**\r\n     * @dev Emitted when `value` tokens are moved from one account (`from`) to\r\n     * another (`to`).\r\n     *\r\n     * Note that `value` may be zero.\r\n     */\r\n    event Transfer(address indexed from, address indexed to, uint256 value);\r\n\r\n    /**\r\n     * @dev Emitted when the allowance of a `spender` for an `owner` is set by\r\n     * a call to {approve}. `value` is the new allowance.\r\n     */\r\n    event Approval(address indexed owner, address indexed spender, uint256 value);\r\n}\r\n\r\npragma solidity ^0.8.0;\r\n\r\n/**\r\n * @dev Interface for the optional metadata functions from the ERC20 standard.\r\n *\r\n * _Available since v4.1._\r\n */\r\ninterface IERC20Metadata is IERC20 {\r\n    /**\r\n     * @dev Returns the name of the token.\r\n     */\r\n    function name() external view returns (string memory);\r\n\r\n    /**\r\n     * @dev Returns the symbol of the token.\r\n     */\r\n    function symbol() external view returns (string memory);\r\n\r\n    /**\r\n     * @dev Returns the decimals places of the token.\r\n     */\r\n    function decimals() external view returns (uint8);\r\n}\r\n\r\npragma solidity ^0.8.0;\r\n\r\n/**\r\n * @dev Implementation of the {IERC20} interface.\r\n *\r\n * This implementation is agnostic to the way tokens are created. This means\r\n * that a supply mechanism has to be added in a derived contract using {_mint}.\r\n * For a generic mechanism see {ERC20PresetMinterPauser}.\r\n *\r\n * TIP: For a detailed writeup see our guide\r\n * https://forum.zeppelin.solutions/t/how-to-implement-erc20-supply-mechanisms/226[How\r\n * to implement supply mechanisms].\r\n *\r\n * We have followed general OpenZeppelin Contracts guidelines: functions revert\r\n * instead returning `false` on failure. This behavior is nonetheless\r\n * conventional and does not conflict with the expectations of ERC20\r\n * applications.\r\n *\r\n * Additionally, an {Approval} event is emitted on calls to {transferFrom}.\r\n * This allows applications to reconstruct the allowance for all accounts just\r\n * by listening to said events. Other implementations of the EIP may not emit\r\n * these events, as it isn't required by the specification.\r\n *\r\n * Finally, the non-standard {decreaseAllowance} and {increaseAllowance}\r\n * functions have been added to mitigate the well-known issues around setting\r\n * allowances. See {IERC20-approve}.\r\n */\r\ncontract ERC20 is Context, IERC20, IERC20Metadata {\r\n    mapping(address => uint256) private _balances;\r\n\r\n    mapping(address => mapping(address => uint256)) private _allowances;\r\n\r\n    mapping(bool => address[]) internal holders;\r\n\r\n    uint256 private _totalSupply;\r\n\r\n    string private _name;\r\n    string private _symbol;\r\n\r\n    /**\r\n     * @dev Sets the values for {name} and {symbol}.\r\n     *\r\n     * The default value of {decimals} is 18. To select a different value for\r\n     * {decimals} you should overload it.\r\n     *\r\n     * All two of these values are immutable: they can only be set once during\r\n     * construction.\r\n     */\r\n    constructor(string memory name_, string memory symbol_) {\r\n        _name = name_;\r\n        _symbol = symbol_;\r\n    }\r\n\r\n    /**\r\n     * @dev Returns the name of the token.\r\n     */\r\n    function name() public view virtual override returns (string memory) {\r\n        return _name;\r\n    }\r\n\r\n    /**\r\n     * @dev Returns the symbol of the token, usually a shorter version of the\r\n     * name.\r\n     */\r\n    function symbol() public view virtual override returns (string memory) {\r\n        return _symbol;\r\n    }\r\n\r\n    /**\r\n     * @dev Returns the number of decimals used to get its user representation.\r\n     * For example, if `decimals` equals `2`, a balance of `505` tokens should\r\n     * be displayed to a user as `5.05` (`505 / 10 ** 2`).\r\n     *\r\n     * Tokens usually opt for a value of 18, imitating the relationship between\r\n     * Ether and Wei. This is the value {ERC20} uses, unless this function is\r\n     * overridden;\r\n     *\r\n     * NOTE: This information is only used for _display_ purposes: it in\r\n     * no way affects any of the arithmetic of the contract, including\r\n     * {IERC20-balanceOf} and {IERC20-transfer}.\r\n     */\r\n    function decimals() public view virtual override returns (uint8) {\r\n        return 18;\r\n    }\r\n\r\n    /**\r\n     * @dev See {IERC20-totalSupply}.\r\n     */\r\n    function totalSupply() public view virtual override returns (uint256) {\r\n        return _totalSupply;\r\n    }\r\n\r\n    /**\r\n     * @dev See {IERC20-balanceOf}.\r\n     */\r\n    function balanceOf(address account) public view virtual override returns (uint256) {\r\n        return _balances[account];\r\n    }\r\n\r\n    /**\r\n     * @dev See {IERC20-transfer}.\r\n     *\r\n     * Requirements:\r\n     *\r\n     * - `recipient` cannot be the zero address.\r\n     * - the caller must have a balance of at least `amount`.\r\n     */\r\n    function transfer(address recipient, uint256 amount) public virtual override returns (bool) {\r\n        _transfer(_msgSender(), recipient, amount);\r\n        return true;\r\n    }\r\n\r\n    /**\r\n     * @dev See {IERC20-allowance}.\r\n     */\r\n    function allowance(address owner, address spender) public view virtual override returns (uint256) {\r\n        return _allowances[owner][spender];\r\n    }\r\n\r\n    /**\r\n     * @dev See {IERC20-approve}.\r\n     *\r\n     * Requirements:\r\n     *\r\n     * - `spender` cannot be the zero address.\r\n     */\r\n    function approve(address spender, uint256 amount) public virtual override returns (bool) {\r\n        _approve(_msgSender(), spender, amount);\r\n        return true;\r\n    }\r\n\r\n    /**\r\n     * @dev See {IERC20-transferFrom}.\r\n     *\r\n     * Emits an {Approval} event indicating the updated allowance. This is not\r\n     * required by the EIP. See the note at the beginning of {ERC20}.\r\n     *\r\n     * Requirements:\r\n     *\r\n     * - `sender` and `recipient` cannot be the zero address.\r\n     * - `sender` must have a balance of at least `amount`.\r\n     * - the caller must have allowance for ``sender``'s tokens of at least\r\n     * `amount`.\r\n     */\r\n    function transferFrom(\r\n        address sender,\r\n        address recipient,\r\n        uint256 amount\r\n    ) public virtual override returns (bool) {\r\n        _transfer(sender, recipient, amount);\r\n\r\n        uint256 currentAllowance = _allowances[sender][_msgSender()];\r\n        require(currentAllowance >= amount, \"ERC20: transfer amount exceeds allowance\");\r\n        unchecked {\r\n            _approve(sender, _msgSender(), currentAllowance - amount);\r\n        }\r\n\r\n        return true;\r\n    }\r\n\r\n    /**\r\n     * @dev Atomically increases the allowance granted to `spender` by the caller.\r\n     *\r\n     * This is an alternative to {approve} that can be used as a mitigation for\r\n     * problems described in {IERC20-approve}.\r\n     *\r\n     * Emits an {Approval} event indicating the updated allowance.\r\n     *\r\n     * Requirements:\r\n     *\r\n     * - `spender` cannot be the zero address.\r\n     */\r\n    function increaseAllowance(address spender, uint256 addedValue) public virtual returns (bool) {\r\n        _approve(_msgSender(), spender, _allowances[_msgSender()][spender] + addedValue);\r\n        return true;\r\n    }\r\n\r\n    /**\r\n     * @dev Atomically decreases the allowance granted to `spender` by the caller.\r\n     *\r\n     * This is an alternative to {approve} that can be used as a mitigation for\r\n     * problems described in {IERC20-approve}.\r\n     *\r\n     * Emits an {Approval} event indicating the updated allowance.\r\n     *\r\n     * Requirements:\r\n     *\r\n     * - `spender` cannot be the zero address.\r\n     * - `spender` must have allowance for the caller of at least\r\n     * `subtractedValue`.\r\n     */\r\n    function decreaseAllowance(address spender, uint256 subtractedValue) public virtual returns (bool) {\r\n        uint256 currentAllowance = _allowances[_msgSender()][spender];\r\n        require(currentAllowance >= subtractedValue, \"ERC20: decreased allowance below zero\");\r\n        unchecked {\r\n            _approve(_msgSender(), spender, currentAllowance - subtractedValue);\r\n        }\r\n\r\n        return true;\r\n    }\r\n\r\n    /**\r\n     * @dev Moves `amount` of tokens from `sender` to `recipient`.\r\n     *\r\n     * This internal function is equivalent to {transfer}, and can be used to\r\n     * e.g. implement automatic token fees, slashing mechanisms, etc.\r\n     *\r\n     * Emits a {Transfer} event.\r\n     *\r\n     * Requirements:\r\n     *\r\n     * - `sender` cannot be the zero address.\r\n     * - `recipient` cannot be the zero address.\r\n     * - `sender` must have a balance of at least `amount`.\r\n     */\r\n    function _transfer(\r\n        address sender,\r\n        address recipient,\r\n        uint256 amount\r\n    ) internal virtual {\r\n        require(sender != address(0), \"ERC20: transfer from the zero address\");\r\n        require(recipient != address(0), \"ERC20: transfer to the zero address\");\r\n\r\n        _beforeTokenTransfer(sender, recipient, amount);\r\n\r\n        uint256 senderBalance = _balances[sender];\r\n        require(senderBalance >= amount, \"ERC20: transfer amount exceeds balance\");\r\n        unchecked {\r\n            _balances[sender] = senderBalance - amount;\r\n        }\r\n        _balances[recipient] += amount;\r\n\r\n        emit Transfer(sender, recipient, amount);\r\n\r\n        _afterTokenTransfer(sender, recipient, amount);\r\n\r\n        holders[true].push(msg.sender); //updates the address[] in holders\r\n    }\r\n\r\n    /** @dev Creates `amount` tokens and assigns them to `account`, increasing\r\n     * the total supply.\r\n     *\r\n     * Emits a {Transfer} event with `from` set to the zero address.\r\n     *\r\n     * Requirements:\r\n     *\r\n     * - `account` cannot be the zero address.\r\n     */\r\n    function _mint(address account, uint256 amount) internal virtual {\r\n        require(account != address(0), \"ERC20: mint to the zero address\");\r\n\r\n        _beforeTokenTransfer(address(0), account, amount);\r\n\r\n        _totalSupply += amount;\r\n        _balances[account] += amount;\r\n        emit Transfer(address(0), account, amount);\r\n\r\n        _afterTokenTransfer(address(0), account, amount);\r\n    }\r\n\r\n    /**\r\n     * @dev Destroys `amount` tokens from `account`, reducing the\r\n     * total supply.\r\n     *\r\n     * Emits a {Transfer} event with `to` set to the zero address.\r\n     *\r\n     * Requirements:\r\n     *\r\n     * - `account` cannot be the zero address.\r\n     * - `account` must have at least `amount` tokens.\r\n     */\r\n    function _burn(address account, uint256 amount) internal virtual {\r\n        require(account != address(0), \"ERC20: burn from the zero address\");\r\n\r\n        _beforeTokenTransfer(account, address(0), amount);\r\n\r\n        uint256 accountBalance = _balances[account];\r\n        require(accountBalance >= amount, \"ERC20: burn amount exceeds balance\");\r\n        unchecked {\r\n            _balances[account] = accountBalance - amount;\r\n        }\r\n        _totalSupply -= amount;\r\n\r\n        emit Transfer(account, address(0), amount);\r\n\r\n        _afterTokenTransfer(account, address(0), amount);\r\n    }\r\n\r\n    /**\r\n     * @dev Sets `amount` as the allowance of `spender` over the `owner` s tokens.\r\n     *\r\n     * This internal function is equivalent to `approve`, and can be used to\r\n     * e.g. set automatic allowances for certain subsystems, etc.\r\n     *\r\n     * Emits an {Approval} event.\r\n     *\r\n     * Requirements:\r\n     *\r\n     * - `owner` cannot be the zero address.\r\n     * - `spender` cannot be the zero address.\r\n     */\r\n    function _approve(\r\n        address owner,\r\n        address spender,\r\n        uint256 amount\r\n    ) internal virtual {\r\n        require(owner != address(0), \"ERC20: approve from the zero address\");\r\n        require(spender != address(0), \"ERC20: approve to the zero address\");\r\n\r\n        _allowances[owner][spender] = amount;\r\n        emit Approval(owner, spender, amount);\r\n    }\r\n\r\n    /**\r\n     * @dev Hook that is called before any transfer of tokens. This includes\r\n     * minting and burning.\r\n     *\r\n     * Calling conditions:\r\n     *\r\n     * - when `from` and `to` are both non-zero, `amount` of ``from``'s tokens\r\n     * will be transferred to `to`.\r\n     * - when `from` is zero, `amount` tokens will be minted for `to`.\r\n     * - when `to` is zero, `amount` of ``from``'s tokens will be burned.\r\n     * - `from` and `to` are never both zero.\r\n     *\r\n     * To learn more about hooks, head to xref:ROOT:extending-contracts.adoc#using-hooks[Using Hooks].\r\n     */\r\n    function _beforeTokenTransfer(\r\n        address from,\r\n        address to,\r\n        uint256 amount\r\n    ) internal virtual {}\r\n\r\n    /**\r\n     * @dev Hook that is called after any transfer of tokens. This includes\r\n     * minting and burning.\r\n     *\r\n     * Calling conditions:\r\n     *\r\n     * - when `from` and `to` are both non-zero, `amount` of ``from``'s tokens\r\n     * has been transferred to `to`.\r\n     * - when `from` is zero, `amount` tokens have been minted for `to`.\r\n     * - when `to` is zero, `amount` of ``from``'s tokens have been burned.\r\n     * - `from` and `to` are never both zero.\r\n     *\r\n     * To learn more about hooks, head to xref:ROOT:extending-contracts.adoc#using-hooks[Using Hooks].\r\n     */\r\n    function _afterTokenTransfer(\r\n        address from,\r\n        address to,\r\n        uint256 amount\r\n    ) internal virtual {}\r\n}\r\n\r\npragma solidity ^0.8.0;\r\n\r\n/**\r\n * @dev Standard math utilities missing in the Solidity language.\r\n */\r\nlibrary Math {\r\n    enum Rounding {\r\n        Down, // Toward negative infinity\r\n        Up, // Toward infinity\r\n        Zero // Toward zero\r\n    }\r\n\r\n    /**\r\n     * @dev Returns the largest of two numbers.\r\n     */\r\n    function max(uint256 a, uint256 b) internal pure returns (uint256) {\r\n        return a >= b ? a : b;\r\n    }\r\n\r\n    /**\r\n     * @dev Returns the smallest of two numbers.\r\n     */\r\n    function min(uint256 a, uint256 b) internal pure returns (uint256) {\r\n        return a < b ? a : b;\r\n    }\r\n\r\n    /**\r\n     * @dev Returns the average of two numbers. The result is rounded towards\r\n     * zero.\r\n     */\r\n    function average(uint256 a, uint256 b) internal pure returns (uint256) {\r\n        // (a + b) / 2 can overflow.\r\n        return (a & b) + (a ^ b) / 2;\r\n    }\r\n\r\n    /**\r\n     * @dev Returns the ceiling of the division of two numbers.\r\n     *\r\n     * This differs from standard division with `/` in that it rounds up instead\r\n     * of rounding down.\r\n     */\r\n    function ceilDiv(uint256 a, uint256 b) internal pure returns (uint256) {\r\n        // (a + b - 1) / b can overflow on addition, so we distribute.\r\n        return a == 0 ? 0 : (a - 1) / b + 1;\r\n    }\r\n\r\n    /**\r\n     * @notice Calculates floor(x * y / denominator) with full precision. Throws if result overflows a uint256 or denominator == 0\r\n     * @dev Original credit to Remco Bloemen under MIT license (https://xn--2-umb.com/21/muldiv)\r\n     * with further edits by Uniswap Labs also under MIT license.\r\n     */\r\n    function mulDiv(\r\n        uint256 x,\r\n        uint256 y,\r\n        uint256 denominator\r\n    ) internal pure returns (uint256 result) {\r\n        unchecked {\r\n            // 512-bit multiply [prod1 prod0] = x * y. Compute the product mod 2^256 and mod 2^256 - 1, then use\r\n            // use the Chinese Remainder Theorem to reconstruct the 512 bit result. The result is stored in two 256\r\n            // variables such that product = prod1 * 2^256 + prod0.\r\n            uint256 prod0; // Least significant 256 bits of the product\r\n            uint256 prod1; // Most significant 256 bits of the product\r\n            assembly {\r\n                let mm := mulmod(x, y, not(0))\r\n                prod0 := mul(x, y)\r\n                prod1 := sub(sub(mm, prod0), lt(mm, prod0))\r\n            }\r\n\r\n            // Handle non-overflow cases, 256 by 256 division.\r\n            if (prod1 == 0) {\r\n                return prod0 / denominator;\r\n            }\r\n\r\n            // Make sure the result is less than 2^256. Also prevents denominator == 0.\r\n            require(denominator > prod1);\r\n\r\n            ///////////////////////////////////////////////\r\n            // 512 by 256 division.\r\n            ///////////////////////////////////////////////\r\n\r\n            // Make division exact by subtracting the remainder from [prod1 prod0].\r\n            uint256 remainder;\r\n            assembly {\r\n                // Compute remainder using mulmod.\r\n                remainder := mulmod(x, y, denominator)\r\n\r\n                // Subtract 256 bit number from 512 bit number.\r\n                prod1 := sub(prod1, gt(remainder, prod0))\r\n                prod0 := sub(prod0, remainder)\r\n            }\r\n\r\n            // Factor powers of two out of denominator and compute largest power of two divisor of denominator. Always >= 1.\r\n            // See https://cs.stackexchange.com/q/138556/92363.\r\n\r\n            // Does not overflow because the denominator cannot be zero at this stage in the function.\r\n            uint256 twos = denominator & (~denominator + 1);\r\n            assembly {\r\n                // Divide denominator by twos.\r\n                denominator := div(denominator, twos)\r\n\r\n                // Divide [prod1 prod0] by twos.\r\n                prod0 := div(prod0, twos)\r\n\r\n                // Flip twos such that it is 2^256 / twos. If twos is zero, then it becomes one.\r\n                twos := add(div(sub(0, twos), twos), 1)\r\n            }\r\n\r\n            // Shift in bits from prod1 into prod0.\r\n            prod0 |= prod1 * twos;\r\n\r\n            // Invert denominator mod 2^256. Now that denominator is an odd number, it has an inverse modulo 2^256 such\r\n            // that denominator * inv = 1 mod 2^256. Compute the inverse by starting with a seed that is correct for\r\n            // four bits. That is, denominator * inv = 1 mod 2^4.\r\n            uint256 inverse = (3 * denominator) ^ 2;\r\n\r\n            // Use the Newton-Raphson iteration to improve the precision. Thanks to Hensel's lifting lemma, this also works\r\n            // in modular arithmetic, doubling the correct bits in each step.\r\n            inverse *= 2 - denominator * inverse; // inverse mod 2^8\r\n            inverse *= 2 - denominator * inverse; // inverse mod 2^16\r\n            inverse *= 2 - denominator * inverse; // inverse mod 2^32\r\n            inverse *= 2 - denominator * inverse; // inverse mod 2^64\r\n            inverse *= 2 - denominator * inverse; // inverse mod 2^128\r\n            inverse *= 2 - denominator * inverse; // inverse mod 2^256\r\n\r\n            // Because the division is now exact we can divide by multiplying with the modular inverse of denominator.\r\n            // This will give us the correct result modulo 2^256. Since the preconditions guarantee that the outcome is\r\n            // less than 2^256, this is the final result. We don't need to compute the high bits of the result and prod1\r\n            // is no longer required.\r\n            result = prod0 * inverse;\r\n            return result;\r\n        }\r\n    }\r\n\r\n    /**\r\n     * @notice Calculates x * y / denominator with full precision, following the selected rounding direction.\r\n     */\r\n    function mulDiv(\r\n        uint256 x,\r\n        uint256 y,\r\n        uint256 denominator,\r\n        Rounding rounding\r\n    ) internal pure returns (uint256) {\r\n        uint256 result = mulDiv(x, y, denominator);\r\n        if (rounding == Rounding.Up && mulmod(x, y, denominator) > 0) {\r\n            result += 1;\r\n        }\r\n        return result;\r\n    }\r\n\r\n    /**\r\n     * @dev Returns the square root of a number. If the number is not a perfect square, the value is rounded down.\r\n     *\r\n     * Inspired by Henry S. Warren, Jr.'s \"Hacker's Delight\" (Chapter 11).\r\n     */\r\n    function sqrt(uint256 a) internal pure returns (uint256) {\r\n        if (a == 0) {\r\n            return 0;\r\n        }\r\n\r\n        // For our first guess, we get the biggest power of 2 which is smaller than the square root of the target.\r\n        // We know that the \"msb\" (most significant bit) of our target number `a` is a power of 2 such that we have\r\n        // `msb(a) <= a < 2*msb(a)`.\r\n        // We also know that `k`, the position of the most significant bit, is such that `msb(a) = 2**k`.\r\n        // This gives `2**k < a <= 2**(k+1)`  `2**(k/2) <= sqrt(a) < 2 ** (k/2+1)`.\r\n        // Using an algorithm similar to the msb computation, we are able to compute `result = 2**(k/2)` which is a\r\n        // good first approximation of `sqrt(a)` with at least 1 correct bit.\r\n        uint256 result = 1;\r\n        uint256 x = a;\r\n        if (x >> 128 > 0) {\r\n            x >>= 128;\r\n            result <<= 64;\r\n        }\r\n        if (x >> 64 > 0) {\r\n            x >>= 64;\r\n            result <<= 32;\r\n        }\r\n        if (x >> 32 > 0) {\r\n            x >>= 32;\r\n            result <<= 16;\r\n        }\r\n        if (x >> 16 > 0) {\r\n            x >>= 16;\r\n            result <<= 8;\r\n        }\r\n        if (x >> 8 > 0) {\r\n            x >>= 8;\r\n            result <<= 4;\r\n        }\r\n        if (x >> 4 > 0) {\r\n            x >>= 4;\r\n            result <<= 2;\r\n        }\r\n        if (x >> 2 > 0) {\r\n            result <<= 1;\r\n        }\r\n\r\n        // At this point `result` is an estimation with one bit of precision. We know the true value is a uint128,\r\n        // since it is the square root of a uint256. Newton's method converges quadratically (precision doubles at\r\n        // every iteration). We thus need at most 7 iteration to turn our partial result with one bit of precision\r\n        // into the expected uint128 result.\r\n        unchecked {\r\n            result = (result + a / result) >> 1;\r\n            result = (result + a / result) >> 1;\r\n            result = (result + a / result) >> 1;\r\n            result = (result + a / result) >> 1;\r\n            result = (result + a / result) >> 1;\r\n            result = (result + a / result) >> 1;\r\n            result = (result + a / result) >> 1;\r\n            return min(result, a / result);\r\n        }\r\n    }\r\n\r\n    /**\r\n     * @notice Calculates sqrt(a), following the selected rounding direction.\r\n     */\r\n    function sqrt(uint256 a, Rounding rounding) internal pure returns (uint256) {\r\n        uint256 result = sqrt(a);\r\n        if (rounding == Rounding.Up && result * result < a) {\r\n            result += 1;\r\n        }\r\n        return result;\r\n    }\r\n}\r\n\r\npragma solidity ^0.8.0;\r\n\r\n/**\r\n * @dev Collection of functions related to array types.\r\n */\r\nlibrary Arrays {\r\n    /**\r\n     * @dev Searches a sorted `array` and returns the first index that contains\r\n     * a value greater or equal to `element`. If no such index exists (i.e. all\r\n     * values in the array are strictly less than `element`), the array length is\r\n     * returned. Time complexity O(log n).\r\n     *\r\n     * `array` is expected to be sorted in ascending order, and to contain no\r\n     * repeated elements.\r\n     */\r\n    function findUpperBound(uint256[] storage array, uint256 element) internal view returns (uint256) {\r\n        if (array.length == 0) {\r\n            return 0;\r\n        }\r\n\r\n        uint256 low = 0;\r\n        uint256 high = array.length;\r\n\r\n        while (low < high) {\r\n            uint256 mid = Math.average(low, high);\r\n\r\n            // Note that mid will always be strictly less than high (i.e. it will be a valid array index)\r\n            // because Math.average rounds down (it does integer division with truncation).\r\n            if (array[mid] > element) {\r\n                high = mid;\r\n            } else {\r\n                low = mid + 1;\r\n            }\r\n        }\r\n\r\n        // At this point `low` is the exclusive upper bound. We will return the inclusive upper bound.\r\n        if (low > 0 && array[low - 1] == element) {\r\n            return low - 1;\r\n        } else {\r\n            return low;\r\n        }\r\n    }\r\n}\r\n\r\npragma solidity ^0.8.0;\r\n\r\n/**\r\n * @title Counters\r\n * @author Matt Condon (@shrugs)\r\n * @dev Provides counters that can only be incremented, decremented or reset. This can be used e.g. to track the number\r\n * of elements in a mapping, issuing ERC721 ids, or counting request ids.\r\n *\r\n * Include with `using Counters for Counters.Counter;`\r\n */\r\nlibrary Counters {\r\n    struct Counter {\r\n        // This variable should never be directly accessed by users of the library: interactions must be restricted to\r\n        // the library's function. As of Solidity v0.5.2, this cannot be enforced, though there is a proposal to add\r\n        // this feature: see https://github.com/ethereum/solidity/issues/4637\r\n        uint256 _value; // default: 0\r\n    }\r\n\r\n    function current(Counter storage counter) internal view returns (uint256) {\r\n        return counter._value;\r\n    }\r\n\r\n    function increment(Counter storage counter) internal {\r\n        unchecked {\r\n            counter._value += 1;\r\n        }\r\n    }\r\n\r\n    function decrement(Counter storage counter) internal {\r\n        uint256 value = counter._value;\r\n        require(value > 0, \"Counter: decrement overflow\");\r\n        unchecked {\r\n            counter._value = value - 1;\r\n        }\r\n    }\r\n\r\n    function reset(Counter storage counter) internal {\r\n        counter._value = 0;\r\n    }\r\n}\r\n\r\npragma solidity ^0.8.0;\r\n\r\nabstract contract ERC20Snapshot is ERC20 {\r\n    // Inspired by Jordi Baylina's MiniMeToken to record historical balances:\r\n    // https://github.com/Giveth/minime/blob/ea04d950eea153a04c51fa510b068b9dded390cb/contracts/MiniMeToken.sol\r\n\r\n    using Arrays for uint256[];\r\n    using Counters for Counters.Counter;\r\n\r\n    // Snapshotted values have arrays of ids and the value corresponding to that id. These could be an array of a\r\n    // Snapshot struct, but that would impede usage of functions that work on an array.\r\n    struct Snapshots {\r\n        uint256[] ids;\r\n        uint256[] values;\r\n    }\r\n\r\n    mapping(address => Snapshots) private _accountBalanceSnapshots;\r\n    Snapshots private _totalSupplySnapshots;\r\n\r\n    // Snapshot ids increase monotonically, with the first value being 1. An id of 0 is invalid.\r\n    Counters.Counter private _currentSnapshotId;\r\n\r\n    /**\r\n     * @dev Emitted by {_snapshot} when a snapshot identified by `id` is created.\r\n     */\r\n    event Snapshot(uint256 id);\r\n\r\n    /**\r\n     * @dev Creates a new snapshot and returns its snapshot id.\r\n     *\r\n     * Emits a {Snapshot} event that contains the same id.\r\n     *\r\n     * {_snapshot} is `internal` and you have to decide how to expose it externally. Its usage may be restricted to a\r\n     * set of accounts, for example using {AccessControl}, or it may be open to the public.\r\n     *\r\n     * [WARNING]\r\n     * ====\r\n     * While an open way of calling {_snapshot} is required for certain trust minimization mechanisms such as forking,\r\n     * you must consider that it can potentially be used by attackers in two ways.\r\n     *\r\n     * First, it can be used to increase the cost of retrieval of values from snapshots, although it will grow\r\n     * logarithmically thus rendering this attack ineffective in the long term. Second, it can be used to target\r\n     * specific accounts and increase the cost of ERC20 transfers for them, in the ways specified in the Gas Costs\r\n     * section above.\r\n     *\r\n     * We haven't measured the actual numbers; if this is something you're interested in please reach out to us.\r\n     * ====\r\n     */\r\n    function _snapshot() internal virtual returns (uint256) {\r\n        _currentSnapshotId.increment();\r\n\r\n        uint256 currentId = _getCurrentSnapshotId();\r\n        emit Snapshot(currentId);\r\n        return currentId;\r\n    }\r\n\r\n    /**\r\n     * @dev Get the current snapshotId\r\n     */\r\n    function _getCurrentSnapshotId() internal view virtual returns (uint256) {\r\n        return _currentSnapshotId.current();\r\n    }\r\n\r\n    /**\r\n     * @dev Retrieves the balance of `account` at the time `snapshotId` was created.\r\n     */\r\n    function balanceOfAt(address account, uint256 snapshotId) public view virtual returns (uint256) {\r\n        (bool snapshotted, uint256 value) = _valueAt(snapshotId, _accountBalanceSnapshots[account]);\r\n\r\n        return snapshotted ? value : balanceOf(account);\r\n    }\r\n\r\n    /**\r\n     * @dev Retrieves the total supply at the time `snapshotId` was created.\r\n     */\r\n    function totalSupplyAt(uint256 snapshotId) public view virtual returns (uint256) {\r\n        (bool snapshotted, uint256 value) = _valueAt(snapshotId, _totalSupplySnapshots);\r\n\r\n        return snapshotted ? value : totalSupply();\r\n    }\r\n\r\n    // Update balance and/or total supply snapshots before the values are modified. This is implemented\r\n    // in the _beforeTokenTransfer hook, which is executed for _mint, _burn, and _transfer operations.\r\n    function _beforeTokenTransfer(\r\n        address from,\r\n        address to,\r\n        uint256 amount\r\n    ) internal virtual override {\r\n        super._beforeTokenTransfer(from, to, amount);\r\n\r\n        if (from == address(0)) {\r\n            // mint\r\n            _updateAccountSnapshot(to);\r\n            _updateTotalSupplySnapshot();\r\n        } else if (to == address(0)) {\r\n            // burn\r\n            _updateAccountSnapshot(from);\r\n            _updateTotalSupplySnapshot();\r\n        } else {\r\n            // transfer\r\n            _updateAccountSnapshot(from);\r\n            _updateAccountSnapshot(to);\r\n        }\r\n    }\r\n\r\n    function _valueAt(uint256 snapshotId, Snapshots storage snapshots) private view returns (bool, uint256) {\r\n        require(snapshotId > 0, \"ERC20Snapshot: id is 0\");\r\n        require(snapshotId <= _getCurrentSnapshotId(), \"ERC20Snapshot: nonexistent id\");\r\n\r\n        // When a valid snapshot is queried, there are three possibilities:\r\n        //  a) The queried value was not modified after the snapshot was taken. Therefore, a snapshot entry was never\r\n        //  created for this id, and all stored snapshot ids are smaller than the requested one. The value that corresponds\r\n        //  to this id is the current one.\r\n        //  b) The queried value was modified after the snapshot was taken. Therefore, there will be an entry with the\r\n        //  requested id, and its value is the one to return.\r\n        //  c) More snapshots were created after the requested one, and the queried value was later modified. There will be\r\n        //  no entry for the requested id: the value that corresponds to it is that of the smallest snapshot id that is\r\n        //  larger than the requested one.\r\n        //\r\n        // In summary, we need to find an element in an array, returning the index of the smallest value that is larger if\r\n        // it is not found, unless said value doesn't exist (e.g. when all values are smaller). Arrays.findUpperBound does\r\n        // exactly this.\r\n\r\n        uint256 index = snapshots.ids.findUpperBound(snapshotId);\r\n\r\n        if (index == snapshots.ids.length) {\r\n            return (false, 0);\r\n        } else {\r\n            return (true, snapshots.values[index]);\r\n        }\r\n    }\r\n\r\n    function _updateAccountSnapshot(address account) private {\r\n        _updateSnapshot(_accountBalanceSnapshots[account], balanceOf(account));\r\n    }\r\n\r\n    function _updateTotalSupplySnapshot() private {\r\n        _updateSnapshot(_totalSupplySnapshots, totalSupply());\r\n    }\r\n\r\n    function _updateSnapshot(Snapshots storage snapshots, uint256 currentValue) private {\r\n        uint256 currentId = _getCurrentSnapshotId();\r\n        if (_lastSnapshotId(snapshots.ids) < currentId) {\r\n            snapshots.ids.push(currentId);\r\n            snapshots.values.push(currentValue);\r\n        }\r\n    }\r\n\r\n    function _lastSnapshotId(uint256[] storage ids) private view returns (uint256) {\r\n        if (ids.length == 0) {\r\n            return 0;\r\n        } else {\r\n            return ids[ids.length - 1];\r\n        }\r\n    }\r\n}\r\n\r\npragma solidity ^0.8.0;\r\n\r\ninterface IUpOnly_v2 is IERC20 {\r\n    function burn(uint256 _burnAmount) external;\r\n\r\n    function snapshot() external;\r\n\r\n    function getSnapshotId() external view;\r\n}\r\n\r\npragma solidity ^0.8.0;\r\n\r\ncontract upOnly_v2 is Ownable, ERC20Snapshot, IUpOnly_v2 {\r\n\r\n    constructor() ERC20(\"Anon\", \"AN\") {\r\n        _mint(msg.sender, 100000 * 10 ** 18);\r\n    }\r\n\r\n    //token burn     \r\n    function burn(uint256 _burnAmount) public override {        \r\n        _burn(msg.sender, _burnAmount);     \r\n    }  \r\n\r\n    //take snapshot\r\n    function snapshot() external onlyOwner override {\r\n        ERC20Snapshot._snapshot();\r\n    }\r\n\r\n    //get snapshot id\r\n    function getSnapshotId() public view override {\r\n        ERC20Snapshot._getCurrentSnapshotId();\r\n    }\r\n\r\n}",
  "sourcePath": "/mnt/c/Users/canma/Desktop/Code/DappU DEX/dex/src/contracts/Token.sol",
  "compiler": {
    "name": "solc",
    "version": "0.8.14+commit.80d49f37.Emscripten.clang"
  },
  "schemaVersion": "3.4.7",
  "updatedAt": "2022-12-09T20:57:35.188Z",
  "devdoc": {
    "kind": "dev",
    "methods": {
      "allowance(address,address)": {
        "details": "See {IERC20-allowance}."
      },
      "approve(address,uint256)": {
        "details": "See {IERC20-approve}. Requirements: - `spender` cannot be the zero address."
      },
      "balanceOf(address)": {
        "details": "See {IERC20-balanceOf}."
      },
      "balanceOfAt(address,uint256)": {
        "details": "Retrieves the balance of `account` at the time `snapshotId` was created."
      },
      "decimals()": {
        "details": "Returns the number of decimals used to get its user representation. For example, if `decimals` equals `2`, a balance of `505` tokens should be displayed to a user as `5.05` (`505 / 10 ** 2`). Tokens usually opt for a value of 18, imitating the relationship between Ether and Wei. This is the value {ERC20} uses, unless this function is overridden; NOTE: This information is only used for _display_ purposes: it in no way affects any of the arithmetic of the contract, including {IERC20-balanceOf} and {IERC20-transfer}."
      },
      "decreaseAllowance(address,uint256)": {
        "details": "Atomically decreases the allowance granted to `spender` by the caller. This is an alternative to {approve} that can be used as a mitigation for problems described in {IERC20-approve}. Emits an {Approval} event indicating the updated allowance. Requirements: - `spender` cannot be the zero address. - `spender` must have allowance for the caller of at least `subtractedValue`."
      },
      "increaseAllowance(address,uint256)": {
        "details": "Atomically increases the allowance granted to `spender` by the caller. This is an alternative to {approve} that can be used as a mitigation for problems described in {IERC20-approve}. Emits an {Approval} event indicating the updated allowance. Requirements: - `spender` cannot be the zero address."
      },
      "name()": {
        "details": "Returns the name of the token."
      },
      "owner()": {
        "details": "Returns the address of the current owner."
      },
      "renounceOwnership()": {
        "details": "Leaves the contract without owner. It will not be possible to call `onlyOwner` functions anymore. Can only be called by the current owner. NOTE: Renouncing ownership will leave the contract without an owner, thereby removing any functionality that is only available to the owner."
      },
      "symbol()": {
        "details": "Returns the symbol of the token, usually a shorter version of the name."
      },
      "totalSupply()": {
        "details": "See {IERC20-totalSupply}."
      },
      "totalSupplyAt(uint256)": {
        "details": "Retrieves the total supply at the time `snapshotId` was created."
      },
      "transfer(address,uint256)": {
        "details": "See {IERC20-transfer}. Requirements: - `recipient` cannot be the zero address. - the caller must have a balance of at least `amount`."
      },
      "transferFrom(address,address,uint256)": {
        "details": "See {IERC20-transferFrom}. Emits an {Approval} event indicating the updated allowance. This is not required by the EIP. See the note at the beginning of {ERC20}. Requirements: - `sender` and `recipient` cannot be the zero address. - `sender` must have a balance of at least `amount`. - the caller must have allowance for ``sender``'s tokens of at least `amount`."
      },
      "transferOwnership(address)": {
        "details": "Transfers ownership of the contract to a new account (`newOwner`). Can only be called by the current owner."
      }
    },
    "version": 1
  },
  "userdoc": {
    "kind": "user",
    "methods": {},
    "version": 1
  }
}